:020000025000AC
:100000006FD0312B000000000018011800280128D3
:100010000228032800290129022903290429052986
:10002000062907290829002A012A022A032A042A64
:10003000052AA62A28E10600EE0E0500DA100500C2
:100040001A1105008A100500781005006A39002091
:100050003E110500221205004A120500A4130500F6
:100060003C140500FE0D05002E0D0500980D050041
:100070005A0D050020180500A6390020381105008A
:10008000981505001CA70600DAA806004CA9060072
:100090008E6506009E650600E401060038F5050041
:1000A000529D0600C6150500D46B060040B205003F
:1000B000C6B205001EB3050060200500AC20050097
:1000C000221F05003E720500146D0500347B0500FB
:1000D000007F0500A8820500925F0500305F0500E3
:1000E0000E630500DE5F0500065F05008A5F050000
:1000F000B85E05005A600500B26005006260050048
:100100006660050002610500BA600500EC6005004C
:10011000066605000E660500566005005E60050077
:10012000FE6005000A660500AA6105004267050039
:100130009890050012910500409105001E7405007D
:100140003674050072740500745905003C5A0500A8
:10015000945A0500563C0500CC3705002453050091
:100160003E38050078520500F6C106007EBF060045
:1001700026C8060002D6060036D5060074D806004A
:1001800070D80600BEB2060008D9060030B00600DE
:1001900098D80600AACE0600C4CE0600E8CE060017
:1001A00078D906006ED3060004D30600E8D906000D
:1001B0003EB20600C6B20600EAB206008CB20600E5
:1001C000EC820600D471060008780600B4720600BE
:1001D000FE7C0600F29D0600E89C060060B006006A
:1001E000A01905002E670600B86B06008A6C060091
:1001F000B6980600F0980600689906000478050095
:10020000AC820600767D06000E750600A27F060011
:1002100090710600B0140500EC6706004C850600DE
:10022000B2870600FA87060060860600761305008E
:100230006C750500E2F4050064C8060000000000CB
:100240006373B60082801C419105110523AEF5FE53
:10025000C5BF938781B4138701FF6373F700828062
:0802600023A007009107D5BFA0
:1002680049C5AA870145C1C58D07C207C183F19B4E
:10027800C207C183130740036366F70203A501B5EC
:1002880083A681B46393A60203A781D3014525C33E
:100298004111C20706C60545DD8D0297B2400145EA
:1002A8004101828003A5C1B4E1BF0357650005EF92
:1002B800035745006369F702B306F74021466370A8
:1002C800D6021041938687001D8FAA96611790C2A7
:1002D8002392E6002393060014C12312F50023138A
:1002E800B50021058280084171BF01458280828066
:1002F80009C903A801B583A581B40147C28763E38F
:10030800B70082809443636DF50663EBA6061386F7
:100318008700E368C5FE03D56700216605066317F5
:10032800C50003C641C10506238AC1C0239307003F
:100338006383070303A6C1B4630FF600035667007F
:1003480019EA83D7470014C383564700B697A10715
:100358002312F700BA879843E305B7FA83A6C1B416
:10036800E301D7FA83566700C9FE83D647000356D0
:1003780047001843A106B2962392D70098C38280FB
:100388003E87B687ADBF09CDB71700401307700584
:100398002380E704130780FA2380E7042396A70243
:1003A800828019C1814799E982803387F5008346A5
:1003B80007003307F50085072300D700E397C7FE3A
:1003C800E5B719C1FD5781E98280910503A7C5FFEB
:1003D8001105232EE5FE7D16E319F6FEF5B77971B2
:1003E80026D283A781D606D622D44AD04ECE52CC66
:1003F80056CA938481D681C7829723A00400DC4023
:1004080089CB03D5C1B54137DC40829703D5E1B527
:100418009D3F9C40639C0714938781F383C75700D3
:10042800138981F3858B85C303477900A3020900EB
:10043800914763FAE700052B83477900F9178A0784
:10044800A6979C43829783C781F8918B89C7973079
:1004580006E0E780805C9C4491C38297938641D4F0
:1004680003A781B503C61600138A81B5138441D446
:100478008347040093961700BA9683D60600638FC5
:10048800060C8347040063FBC70686073E9783551F
:1004980007002310070003D5C1B5938941B62EC6BE
:1004A80023900900CD350345040083A701B713172E
:1004B8002500B245BA979C438297AA8A03D5E1B52D
:1004C800D9358347040003D50900139717008327FC
:1004D8000A001345F5FF33755501BA9703D707008E
:1004E800598D2390A700834704000347140085070C
:1004F80093F7F70F2300F40063E4E70023000400F8
:100508009C40ADE703A781B6938481B625C3834792
:10051800B90081CB8347790089E7973006E0E78007
:10052800E0E69C408297AA8431C11C48AA971CC85F
:1005380083A7C1B685CF03D5C1B5B135268597D078
:1005480004E0E780C0652254B25092540259F2493F
:10055800624AD24A03D5E1B5456135B5850793F7B7
:10056800F70F2300F400E3E5C7F021BFB25022548F
:1005780092540259F249624AD24A4561828091678F
:10058800B7C600409387373023A6F6200F10000027
:10059800938741D4884F83A781C6316713073730C3
:1005A800F053B7071000FD17918F99833A0523A6DA
:1005B800E6205D8D82804111B7170040985F3AC6EA
:1005C800945F3247E39CE6FE324541018280411147
:1005D80006C6D53703C6C1D1058A15CA9307303375
:1005E8003307F502B337F5023983CA07938541D437
:1005F800D98FD849938641D401456307F7006370C2
:10060800F7023385E740DCC9B24041018280E54703
:100618003307F502B337F5022583DE07C1BF376517
:100628003D0809C637856F0813050590198D3E9555
:10063800DCCAD9BF0327C50F8346B50083A701F5D8
:1006480058439386160295829043FD1693F6F60F4B
:1006580010C3D04350C3904710C7D04750C7904BE2
:1006680010CBD04B50CB904F10CFD04F50CF91C61E
:100678001307070293870702C1BF82808347E501FA
:1006880093F7E70FE1EB2A870345F50161E5034698
:1006980007018346870019C68345A70283C7D1D1BE
:1006A80063E7F50093F70601C5CB814709CA83477D
:1006B80007150346F714C18AA207D18F81CA83465A
:1006C8003715034747152207558FBA97D1C703A790
:1006D80041ED411122C406C67D548326070863F301
:1006E80086003684184375FB938681D083C64601FD
:1006F800138781D013968601618663560602938715
:10070800C71395830347E701BA97635F06021D8CF9
:1007180083A741B782973335A400B24022441345DA
:10072800150041018280858A9387C71289CA8A0782
:100738009387F7031305D007B3D7A702E1B7860756
:10074800FD071305D003CDBFE373F4FC3705C0A83C
:100758002A9475BF0145828082805D7126DC3AD279
:1007680003A781C53ED04EC81C5F86C696C4998330
:100778009AC29EC022DE2ADA2ED832D636D442CE8B
:1007880046CC4ACA72C676C47AC27EC0858B938428
:1007980081C5B9CF1C5F138481F393F7F7F91CDF88
:1007A80083C781F393F7070499CB83A741B782974F
:1007B80008C883C781F393F7F70B238CF1F28547B9
:1007C800A302F4008347440093F7070489EB83A747
:1007D80081C65844B8D3930700FC2302F40083076A
:1007E800640063D7070083A741C59C432303F40033
:1007F80098401C5F8583858BC1CBF5571CDF0100B2
:1008080001000100010001000100010001000100D8
:1008180001000100010001000100010001000100C8
:1008280001000100010001000100010001000100B8
:1008380001000100010001000100010001000100A8
:100848000100010001000100010001000100010098
:100858000100010001000100010001000100010088
:100868000100010001000100010001000100010078
:10087800010001000100010001000100010083A73F
:1008880081C613075004B8CB98401C5F9183858BB1
:1008980081CFBD571CDF83A781C6054723A807045E
:1008A800938781F32382E70083A741C5D843058353
:1008B800058B19C7D843759BD8C3D843799BD8C330
:1008C8007254B640A64216438643E2545255C25566
:1008D8003256A256125782577248E2485249C249C4
:1008E800324EA24E124F824F61617300203083A6B0
:1008F80081C6938781F3B85219CB03C72700058BAC
:1009080019E703C73700058B7DD72382070082804C
:1009180083A741C699CB944BD04B9842518F98C22C
:1009280094439C479842D98F9CC283A781C6B7C677
:100938000040A8CB9305C00313062003138781F357
:1009480083A78620C18393F7F70363E9F50083A79C
:100958008620C18393F7F7036366F6008347470051
:10096800858BF9DF828083A681C6938781F3B8528D
:1009780019C703C70700058B11C723820700A38285
:100988000700828003C71700058B75D3FDB783A7BF
:1009980041C699CB944BD04B9842518F98C29443FF
:1009A8009C479842D98F9CC283A681C637C700400E
:1009B800C145A8CA654683278720C18393F7F703F3
:1009C80063FBF50083278720C18393F7F7036364EC
:1009D800F600BC52EDF3828003A781C5AA87185F91
:1009E8001583058B25EF0345150015051377C51FDE
:1009F80019C6B386E70083C626002300D60085C53E
:100A080083C6E1F3094593F60604B1CAB386E70045
:100A180083C63600054693F5F6066392C504E206DA
:100A2800E18663CE06023385E70083471500034756
:100A38000500A20793F70770D98F93960701C18223
:100A480013F60640138701C619C693E606802310DD
:100A5800D700014582802310F700E5BF0545828055
:100A680001113EC42ECC83A581C636C83AC694452A
:100A78002ACE32CA1397060142C246C0418393F870
:100A88001620138881C63A86938781F3638F0802FC
:100A980093F60620DDCE83C62700B708001093E63C
:100AA80016002381D70093060019B4D1930600F8E5
:100AB8002382D70083A581C5D455F19A93E62600F1
:100AC800D4D59441B3E6160194C19376261081CE0D
:100AD8001376061051CA83C681F393E61600238C59
:100AE800D1F22394070003C647001347F7FF4207D4
:100AF80062066186418383260800635F0600131639
:100B08001701635A0606AC520D466367B6000546E0
:100B18002382C700BC52FDFF8387C1D163DD070074
:100B280093170701C18763DC0704F052894763E420
:100B3800C700FC52FDFF9C467245E2457D8F98C672
:100B48005246C2463247A24712488248056173009E
:100B5800203083C617002394070093E61600A3806D
:100B6800D7002382070095B783C6370093E616009F
:100B7800A381D700BDB705462382C70071BFDC46F5
:100B880013960701635C0600B7071000FD17FCD237
:100B9800938741D4904F050690CF71BFA1675D8FB1
:100BA80059BF938741F7138641F50346B60183C7BA
:100BB8005701938641F7138741F5B29793F7F70FDB
:100BC8007D466361F604A300F70083471700484B8E
:100BD80005463316F600A38AF600698E05EE03C6AD
:100BE800960113080002814633F6C7028147B355C0
:100BF800F500858993F8F70F99C96317D600A30004
:100C0800170182808117C1B7850693F6F60F85070D
:100C1800E39F07FD828003A701C7B75702009387A8
:100C2800279F8326070913965600635806008326D4
:100C380007091396660063440600FD17FDF38280DA
:100C480083A581D0938781D01386052223A8C1B4B8
:100C580003D74700938785FFBA97056523A4F1B4A6
:100C68001D05930600206364E5009356370033079B
:100C7800D60023A6E1B423A0E522E1162312D6006C
:100C8800231306001CC3998FE1172312F7002313BF
:100C98000700828083A701B503A781B401456313C8
:100CA800F700828083D6670081E683D647003695B1
:100CB8009C43F5B783A701B583A681B40145639327
:100CC800F600828003D7670011E703D747006373F4
:100CD800E5003A859C43E5B783A701B503A681B42F
:100CE8002A87B305B5406314F6003A8529A8938688
:100CF80087009C43E369D7FEE377F7FE2E85E3E49C
:100D0800D5FEE3F2F5FE828023AC05FE1C4191E797
:100D1800010001000CC18280BA8703A787FF6DFF1D
:100D280023ACB7FE82801DC18346E5FF1307F00F91
:100D38009147639EE600411106C69730FB1FE78086
:100D480060B7B24081473E854101828095473E8524
:100D5800828001E9014582800145B2402244410177
:100D68008280411122C42A84210542059305D004BA
:100D7800418106C69730FB1FE780C0AA71DDFD5789
:100D880023200500231285002303F5002105F1B770
:100D9800411126C222C44AC083A741B506C60144F0
:100DA8000149938441B589E7A165CD2B05C401A804
:100DB80003C7E7FF6317A70215C8A165AD2E9840C2
:100DC800832784FF6316E4029CC0FD57232C04FE8E
:100DD800230FF4FE2285B240224492440249410185
:100DE800828011E03E8983A787FF75BF3E84E5BFF7
:100DF800232CF9FED9BFB9C583C751D4411122C4E8
:100E080006C62A842E856368F400313F0D45B2403A
:100E180022444101828083A785FF99E703C7E5FF44
:100E28009307F00F6305F700FD3D1545CDB7238FF8
:100E380085FE138541B5C93D22852244B240A1658E
:100E48004101D5AC1545828023AA01B4828083A7CD
:100E5800C1B699E33E85828003D727006316B700A1
:100E680003C70700E308A7FEDC47E5B741119397DE
:100E780005014AC006C622C426C2C1872E8963DE80
:100E88000700393711C1453521653345A900B240FE
:100E980022449244024941018280AA860145E5D94B
:100EA80001443D47B3578940858B8DCB83A401B658
:100EB800BD4791E28147A2978E070545BE94331539
:100EC8008500131405019C40C8404180829723A0E7
:100ED800040023A204003345240155BF0504E3138D
:100EE800E4FC0144CDBF83A781D2411122C406C6C8
:100EF800138481B085C7829708C00840B7470300AC
:100F08009387D73F3305F502B7A72600938737ECB9
:100F1800B2403E9508C0224441018280184083A710
:100F280041D5BA971CC0D1BF011122CC938741D4B7
:100F380006CE26CA4AC883C6170003A681B51384FD
:100F480041D4814713F7F70F6362D708938781F37A
:100F580003C777009147138981F363E0E70883C7E4
:100F680081F8918BBDEB6800EFF08015FD566300AA
:100F7800D50C938781D083C737013247938481D0BA
:100F880063FDE704404403C744016304D406058BAA
:100F980039CB51473304E40263F187049730FB1FD0
:100FA800E780A0BDB2476373F400A28703C734018A
:100FB800998F3E958387440163C20704B707C0A889
:100FC800636EF502B70740573E950DA8850713973E
:100FD800170032970357E7FF35D7F2406244D244EF
:100FE800424905618280130790023304E4020580B8
:100FF80065B762076187635707001D8D19E93705D3
:10100800C0A801A8E37BF5FE3707C0A8B307F740DF
:101018003E9583A7C1D2829769F183278901D5DFDD
:10102800EF504171EF50D157EF5061647DB75C4488
:10103800E385A7FA138781D003474701938481D0BA
:10104800058B0DC351443384870283C73401E3F60B
:1010580087F89730FB1FE78040B283C734011D8CA7
:10106800229589BF13049002338487020580F1BF5B
:101078002A9609E582800505A30FB5FEE31DC5FE86
:10108800D5BF81473307F5000307070019E33E85FD
:1010980082808507C5BF01112E8626CAAA8413152A
:1010A80006019305F004418122CC06CE32C6972072
:1010B800FB1FE78020772A8419C53246A68597301A
:1010C800FB1FE780408A2285F2406244D2440561D2
:1010D800828081476314F600054582803307F50056
:1010E8008507B386F5000347070083C6F6FFE38349
:1010F800E6FE014582809307F6FFBE952A966313A4
:10110800C5008280FD1583C715000505A30FF5FEF0
:10111800FDB7814711E9014582803307F500034790
:101128000700E31AB7FE8507E319F6FE0545828036
:1011380003A541D5828083C751D4637EF5009317F8
:10114800150003A581B53E9583570500DD8D231055
:10115800B500014582800D458280011126CA93871A
:1011680041D422CC4AC84EC652C456C206CE5AC032
:101178007D57D8C703A4C1B62A8A8149938441D42C
:10118800938AC1B6138981D0184481476374EA00F1
:10119800B3074741032749021CC409C7D84463F36E
:1011A800E700DCC4A9E78355240085ED5C44639916
:1011B800090423A0FA00032BC40022859720FB1FF3
:1011C800E780406F5A8469F0832749028DCF6244D3
:1011D800F240D2444249B249224A924A024B05613E
:1011E800A1B303450400813F5C4081CB1CC48357F5
:1011F8002400CDDFA2894044F9B71C44C5DBC5BF34
:1012080023A6F9004DBFF2406244D2444249B24994
:10121800224A924A024B0561828083C751D4637087
:10122800F5029317150003A581B593C5F5FF3E9503
:1012380083570500FD8D2310B500014582800D45BB
:10124800828083C751D46364F500014582804111CF
:1012580022C426C24AC006C62A842E89B284C53E44
:1012680001C504C5054515A0936504F0C205C181F3
:1012780041459720FB1FE780E05A11ED83A781D3F2
:1012880081C7A285114582970145B2402244924404
:101298000249410182801387C1B61C4385E308C314
:1012A80085472326050004C5231125012300850051
:1012B800A300F5002322050075B7BA87D84775FF44
:1012C800C8C7F9BF5DC1397122DC26DA4AD84ED6C3
:1012D80052D45AD05ECE66CA6AC806DE56D262CCEE
:1012E8006EC63689328AAE89AA840144394D854B47
:1012F800F94C03A701B6131C3400937AF40F6297D4
:101308001C43938D01B6A9EF13B5FA0013451500D8
:10131800B3978B0063765D01930714FFB397FB00C7
:1013280093950701C1815286293F1DC983A70D00E6
:101338000145E29784C323A237016304090023000F
:101348005901F2506254D2544259B259225A925A0F
:10135800025BF24B624CD24C424DB24D216182800D
:101368000504E31894F92145E9BF09458280411134
:1013780022C426C24AC006C6AA842E893284D13520
:10138800CA852685E93409C940C10145B2402244CD
:1013980092440249410182802145CDBF411122C4B6
:1013A80026C24AC006C6AA842E8955342A8419C181
:1013B8002311050083C741D463949700239221B772
:1013C800CA852685993D014511E01945B240224458
:1013D80092440249410182807547636BA70483A642
:1013E80001B6411126C293143500A696944222C430
:1013F80006C6AA87138401B6094595C613B5F70032
:101408003947134515006373F700C5178545B3952C
:10141800F500C205C18159371C400145A69723A094
:10142800070023A20700B24022449244410182806F
:1014380009458280411106C6193C09C50845B240D4
:10144800410182800145E5BFF54763ECA70483A706
:1014580001B613173500BA979843894721C7011178
:1014680026CA06CE9334F50022CCB94793C414009B
:1014780063F3A700451505443314A40042044180D2
:101488002EC62685A2857D378947324609C5A2859D
:101498002685453B8147F2406244D2443E8505613A
:1014A800828089473E858280239EA1B4239FB1B460
:1014B8008280411106C623A4A1B60295B24023AC8E
:1014C800A1D4014541018280994763E8B700939709
:1014D8002500938581D6BE9588C18280411106C6B4
:1014E80022C426C2EFF0CFF571468145138581D617
:1014F8004136138441D4130640028145138541D4F3
:10150800853E23A601B623A401B683C741D293051D
:10151800101013D527008D8B3E958D473305F502A6
:101528009947938401B735051375F50F2301A40076
:101538003305F5021305050F9720FB1FE780802E62
:1015480023A0A1B6834724001305050F88C08A0786
:101558003E9523ACA1B4EFF03F8F212E83471400B2
:101568009840B7160500139627003A96938646E7E3
:1015780014C213862700850793F7F70FA300C4004A
:10158800B24022448A07BA9794C3924441018280A8
:10159800138741D4834717008346270063FED7008B
:1015A80083A601B713861700A300C7001397270067
:1015B800369708C33E8582809307F00FE5BF1C412C
:1015C800638E071241777D8FB7060020894763181D
:1015D800D7120357450063040712411126C2194662
:1015E800AA849305F00F590506C622C44AC01536C9
:1015F80005478D47630DE50E938781D09C4713847B
:1016080081D091C7585899477DE3185C6DE313065C
:10161800C0038145138581D0A13C1306C003A6856C
:10162800138581D09720FB1FE780E0338357C400E0
:1016380089E7930700102316F4008347E40081E745
:1016480085472307F4008347F40081E7ED47A307A4
:10165800F4008347040181E795472308F400834792
:10166800140181E78547A308F4008347540189E7FB
:1016780083470401A30AF4008347240181E7D14783
:101688002309F4008347E40195E3034744019307E2
:10169800C00293168701E18663C806009377170096
:1016A80093B717009387D702230FF40083473401B9
:1016B80095E3034744019307C00293168701E18627
:1016C80063C806009377170093B717009387D7026C
:1016D800A309F40083C7D40181E78947A30EF40066
:1016E8001C5481C782972395A1D4CD3B8147B24032
:1016F8002244924402493E854101828089473E85C1
:101708008280011122CC06CE2A842EC6EFF0AFFDCE
:10171800B245F240818D33A5A50222956244137526
:10172800F50F05618280011122CC06CE2A842EC6CF
:10173800EFF06FFBB245F240818D33A5A5022295EB
:1017480062444205418105618280011122CC06CEA6
:101758002A842EC6EFF02FF9B245F240818D33B5B9
:10176800A5022295624405618280138781D01857AB
:10177800011122CC06CE26CA4AC84EC6138481F36C
:1017880031CF138981D00297138741D4035767005B
:10179800AA84938941D42DCFBA876373A700AA87F7
:1017A800C207C183BA8663F3E400A686C206C18273
:1017B800958F5147635EF7048327C90291C38297C7
:1017C80085472304F400EF50C14B23939900F2405E
:1017D8006244D2444249B249056182808347840009
:1017E8008DE783479400850793F7F70FA304F40068
:1017F800A18BF1DF85472314F4006244F240D24400
:101808004249B24905616F50414DA3040400F5B740
:1018180083478400CDDFD5B7138781D0585701118E
:1018280022CC06CE138481D001C72AC6029732453E
:10183800938741B701CD88C337450020130565B9A3
:101848008D39F240624401450561828003074401F5
:10185800635C0700138741D4232C07003747002017
:10186800130767B498C3C9BF374700201307E7B702
:10187800D5BF011122CC938781D0884706CE26CACE
:101888004AC801E90545F2406244D244424905612B
:101898008280138481D05C58F5D7185C65D77000B6
:1018A800854582971844B247E30EF7FC0355C400F8
:1018B8009305E0049720FB1FE780C0F6138741D407
:1018C80048CF938441D45DDD0356C4009305F00FDF
:1018D8000149EFF0EFF98347E400D04C634DF9007C
:1018E80032859720FB1FE780E0FC014523AE04000A
:1018F80023A0040249BF8355C4000844185CB38779
:101908002503898105093E9508C20297E9B7411167
:1019180022C4938781D09C4726C206C64AC09384B6
:1019280041D491EBC84C25E1B2402244924402498B
:10193800014541018280138481D01C5CE5D7DC4CD1
:1019480091EB0355C4009305E0049720FB1FE78043
:1019580060EDC8CCC84C79D50356C4009305F00F88
:101968000149EFF0EFF08347E400D04CE35CF9FA6B
:101978008355C4001C443385250305093E951C5C2A
:1019880008C28297CDB79720FB1FE780A0F223AE4D
:10199800040023A0040249BF01114EC6938781D0D9
:1019A8009C4726CA4AC852C406CE22CC56C25AC040
:1019B8002A8AAE8432896388071E938981D003A757
:1019C8004903630007127D47636FA710138741D44B
:1019D800832AC701138441D4639A0A0803D5C9002E
:1019E8009565938515E09720FB1FE780A0E348CC19
:1019F8002A8665C983D5C90083A7490303A5890039
:101A08008981829783A78900832AC4011CD08947CA
:101A18006316FA08C1476396F40C83D5C900914749
:101A2800938505FCB3C5F5028A05D69503C705005D
:101A38009307A0056313F70A83C71500639F470937
:101A48004A85268691059720FB1FE780C0F15C4CEC
:101A58005685639157130145F2406244D244424986
:101A6800B249224A924A024B056182801850E380AB
:101A7800E7FA03D5C9009565938525E09720FB1FF4
:101A8800E78040DAAA8A31CD83D5C9002A8683A7A0
:101A9800490303A589008981829795BF8D47631BF8
:101AA800FA00C147639FF40283D5C900938545FDB9
:101AB800F199A5BF91476318FA006394440383D54D
:101AC800C900A115F5B7C147631DFA00A14763EA2C
:101AD800970083D5C900C115E1BF5C4C5685639F4B
:101AE800570B294595BF1307F006636AA708930AA1
:101AF80005FE1947B3CAEA0203D7C900B38AEA0246
:101B0800BE9A938741D49C53138B41D46395570154
:101B18000324CB011DE003D5C9009305E0049720F9
:101B2800FB1FE78020D02A844DDD83D5C90083A719
:101B380049032A8689815685829791451307A0050E
:101B4800898193972500A29783C607006393E604CB
:101B580083C61700639C460385058A052686A295D9
:101B68004A859720FB1FE78000E08327CB01E384A9
:101B780087EE22859720FB1FE780C0D3E9BD1307B6
:101B8800E007E360A7F6930A05F9BDB783D52700F8
:101B980045BF8327CB01E38687F422859720FB1F67
:101BA800E78040D13DBF83A501D685DD91479306E7
:101BB800A0058983139727002E9703460700E31291
:101BC800D6F203461700631C460185078A07268656
:101BD800BE954A859720FB1FE780E0D8ADBD8357A7
:101BE8002700C1BF938781D098471DCF985F0DCF3D
:101BF8008546631BD502411122C4138441D4504C3D
:101C080006C619CE83D5C700085089810297484C6B
:101C18009720FB1FE78000CA232E0400232004021C
:101C2800B2402244410182808280011122CC9387F4
:101C380081D056C283AA870026CA4AC84EC606CE95
:101C480052C42A89AE84B289138481D063870A1C5E
:101C58001C5C99EB2945F2406244D2444249B2499E
:101C6800224A924A056182805C58EDD7FD4763E5B8
:101C7800A70C938741D4DC4F138A41D4B9C70844D1
:101C880083270A02639FA70489476317F906C14798
:101C9800E392F4FC0355C4009147130505FC334552
:101CA800F502931725000325CA012686CE853E95A1
:101CB8009307A0052300F500A3002501110597202F
:101CC800FB1FE78040CA014579B70355C400930557
:101CD800E0049720FB1FE780E0B4232EAA0045F11B
:101CE80095BF8355C4005C580326CA018981829731
:101CF8001C442320FA0249BF8D47631CF900C147E1
:101D0800E39AF4F40355C400130545FD9377C5FF22
:101D180059BF91476318F900E39E24F30355C400A3
:101D28002115EDB7C147E317F9F2A147E3E497F2AC
:101D38000355C4004115D9BF9307F00663E7A7060A
:101D4800930705FE1947B3C7E7020357C400B387D3
:101D5800E702BE9A938741D4DC4F138A41D4A9CFB6
:101D680083270A02639657070325CA019146130879
:101D7800A005FD5593D72600C207C18313972700F6
:101D88002A9703460700631406078348170003567B
:101D98002700639C2805B306D64063C696048507CA
:101DA8008A072686CE853E9519BF9307E007E3E3A9
:101DB800A7EA930705F951BF0355C4009305E0044A
:101DC8009720FB1FE78000A6232EAA0051F959B5DA
:101DD8008355C4005C580326CA01898156858297B9
:101DE80023205A0351B7A300B700B28661B7035640
:101DF800C400B38596009105130606FCE3FCC5E410
:101E0800138634001376C60F1106B2962300070115
:101E1800A30027012311D70059B7938741D4DC4F7A
:101E2800138A41D4A1C30325CA0191461308A0050A
:101E3800FD5593D72600C207C183139727002A9719
:101E48000346070063120605834817000356270058
:101E580063982801B306D640E3D396F4A300B700ED
:101E6800B286C1BF0345E4008357C4009305E0046C
:101E78003305F502420541819720FB1FE780809AD0
:101E8800232EAA004DF1F9B30356C4008345E4009C
:101E9800B385C502338696001106E3EDC5DA8DB722
:101EA8000145828083C705002300F50083D72500FC
:101EB800A300F50083D72500A1832301F50083C77C
:101EC8004500A301F5001145828023AE01B623AC7D
:101ED80001B6828029C1411126C206C622C4AA843D
:101EE80001458DC52E84B7E50600228541469385B8
:101EF80005F79720FB1FE78000A783C70400054567
:101F08002306F40083C71400A306F400B240224459
:101F180092444101828001458280011122CC26CA67
:101F280006CE0947AA8432846381E5044146814785
:101F3800639BC500638FE6006397B6000DA8414711
:101F48008147638EE600F2406244D2443E850561D3
:101F580082808A852285BD3F41468A8519A88A855F
:101F6800953F41468A85228531A0E39AB6FC2E86A4
:101F7800A2852685EFF0EF95AA87F1B723ACA1B625
:101F8800828023AEA1B68280011122CC0354650061
:101F980006CE26CA4AC84EC641C083298500AE84EB
:101FA8002A8803C909008147131789016187635586
:101FB8000702B147054563FA8704511442040355E3
:101FC8002800418033878900A2864E868545EFB078
:101FD800102EB337A00085077D14135569004204FD
:101FE80005891379F90341802380F400A380A400B4
:101FF8002381240123928400014719C01387190003
:1020080098C409476383E7000145F2406244D2441B
:102018004249B249056182800545C5BFC167F917C4
:10202800630AF502D94763F7B702011122CC2EC61D
:1020380006CE2A84EF705027B2456368B500228522
:102048006244F24005616F90802AF240624405457F
:102058000561828005458280C167F9176314F50020
:102068006F709024411106C6EF90601811E15D452C
:10207800B2404101828091476394F502834705008D
:102088002300F6008347250003471500A207D98FD0
:102098002311F6008347350001452302F6008280AC
:1020A800114582804111814522C426C206C6AA84F0
:1020B800392D2A8419E583A781B781C7F945268573
:1020C80082972285B240224492444101828039712C
:1020D8004ED656D25AD006DE22DC26DA4AD852D458
:1020E800AA8A2E8BB28941EF36C6BD379145EF706B
:1020F800F02BAA844D492DC9B246054A23803401E4
:102108000544630A0B00B68513851400029B050578
:10211800131405014180E20993D9894163D3090267
:10212800C1455685EF90A019654905E933868400B5
:10213800A2852685EFB0205C2A8905E13104420496
:10214800418091472C085685231CF10026CE231D7B
:102158008100EF80F0302A8901C963070A002685CB
:102168009710FB1FE7800075F25062544A85D254DD
:102178004259B259225A925A025B21618280BA842A
:10218800014AADBF011122CC26CA4AC84EC606CEA6
:102198002A893284B689253FAA8419ED83A7C1B755
:1021A80081CF05476317E40003C4090005041374CD
:1021B800F40FA2854A858297F240624426854249F7
:1021C800D244B24905618280AE86B7250500014731
:1021D80005469385C5EA7DB783D705002300F5003A
:1021E80083D70500A183A300F5000945828083D722
:1021F80005002300F50083D70500A183A300F5009F
:1022080083D725002301F50083D72500A183A301E7
:10221800F5001145828083D705002300F50083D798
:102228000500A183A300F50083D725002301F5004D
:1022380083D72500A183A301F50083C75500230296
:10224800F50083C76500A302F50003D585001905CD
:1022580042054181828083D705002300F50083D79A
:102268000500A183A300F5000945828083D70500F6
:102278002300F50083D70500A183A300F50083D7C9
:1022880025002301F50083D72500A183A301F500CC
:102298001145828003D545000605420541818280AB
:1022A80083D705002300F50083D70500A183A30089
:1022B800F50003D52500090542054181828083D7B1
:1022C80005002300F50083D70500A183A300F500CE
:1022D80083D725002301F50083D72500A183A30117
:1022E800F50003D54500110542054181828083C769
:1022F80005002300F5000545828083D705004111BC
:1023080022C406C62300F50083D705002E841105D4
:10231800A183A30EF5FE83D725009505230FF5FEAF
:1023280083D7D5FFA183A30FF5FE03C6F5FF97104A
:10233800FB1FE780406303454400B2402244110577
:10234800410182808947639CF50083471500034754
:1023580005000145A207D98F2310F6008280114598
:10236800828003D70500D94763FEE702011122CC1A
:1023780006CE2EC62A84EF702073B24683D7060095
:10238800636DF50022856244F240B72505000147D8
:1023980009469385051E05611DBBF2406244094547
:1023A800056182800945828091479DC58346050065
:1023B800FD15C2058547C1816392F60213D7250032
:1023C8008D89914791E9914701CB05052301D600F5
:1023D8002310E60048C281473E858280094791471D
:1023E800E39CE6FEC94733D7F502B3F5F502D1BF42
:1023F800AE86B7250500014711469385651FC1B90B
:1024080093F7350091EB8981914789C52310B60070
:1024180048C281473E8582809147EDBF03C745008A
:102428008947631AF702011122CC2A84C84506CECF
:10243800AE86014719C52EC69D45EFE0FF89B24615
:102448002A8722856244F240B725050019469385FC
:10245800E5210561ADB90945828099E11145828080
:102468008347050005472311F600E379F7FEFD15BC
:1024780093F5F50F33D7F502B387E702E390F5FE3E
:10248800050548C22310E6000145828083C7450040
:102498000947AE866385E70041476399E700B7259A
:1024A8000500014721469385253015B109458280ED
:1024B8002310B60091E1014548C201458280AE86ED
:1024C800B7250500014729469385E52509B123105D
:1024D800B60091E1014548C201458280AE86B72524
:1024E80005000147314693854527D5B62310B60028
:1024F80091E1014548C20145828003D745008547DF
:1025080063FDE702011122CC2A84884106CE0DC161
:102518002EC68545EFE04FFC2A8722856244B246E5
:10252800F240B725050039469385C529056145B6AA
:10253800F2406244094505618280094582809147DD
:102548009DC5034705008D46914763F2E602FD15D8
:10255800C205C181B3C6E5023308D70263990501F4
:1025680005052310D6002311E60048C281473E85A1
:10257800828083C745000947AE866385E7004147E7
:102588006399E700B7250500014741469385253043
:102598003DBE09458280B335B00013952500828081
:1025A800011122CC26CA06CE03C785008547AA8416
:1025B8002E8449466311F702EFF01FAA83572400BF
:1025C80049151306200963C8A700F2406244D244A3
:1025D8000945056182800347940085476314F70025
:1025E80013660604484011C58D4532C6EFE0CFEEAC
:1025F8003246A2866244F2402A872685D244B7250D
:1026080005009385852A0561D9B48D4763FFB70214
:102618008347150003470500F115A207D98F23103A
:10262800F6008347350003472500C205A207C1818C
:10263800D98F2311F6002312B60089C5110508C6E3
:102648000145828023240600E5BF114582800111DF
:1026580022CC2A84884506CEAE8611C52EC695455D
:10266800EFE08FE7B2462A8722856244F240B72519
:10267800050059469385652C05616FF05FA5B33554
:10268800B000139525008280AE86B7250500014766
:1026980061469385652F6FF09FA38547114563F4C5
:1026A800D7028347160083450600A207CD8F231063
:1026B800F7009387E6FF2311F70089476386F60042
:1026C800090650C30145828023220700E5BF014760
:1026D8008146794681456FF09F9F83D70500230087
:1026E800F50083D70500A183A300F5000945828082
:1026F80083C7250005472300F50003D50500639728
:10270800E7000A050505420541818280C94733056E
:10271800F502CDBF03D505000A0542054181828037
:1027280083D725002300F50003D5050083D72500AE
:102738003305F502050542054181828003D5050070
:10274800828003D50500828003D50500828083D767
:1027580025002300F50003D5050083D725003305A0
:10276800F502050542054181828083D705002300D3
:10277800F50083D70500A183A300F50083D72500C2
:102788002301F50083D72500A183A301F50003D514
:102798004500110542054181828083D70500230049
:1027A800F50083D70500A183A300F50003D5250014
:1027B800090542054181828089471145639BF600DE
:1027C80083471600834606000145A207D58F2310CC
:1027D800F700828003D70500D947AE8663FAE70081
:1027E800B725050001470D469385256E6FF09F9923
:1027F8000945828011456393A602834716008346E4
:1028080006000145A207D58F2310F700834736003D
:1028180083462600A207D58F2311F700828083C73D
:1028280025000547FD1793F7F70F6361F70483D772
:1028380005008DCF011122CC2A84C84106CE15C1CE
:102848002EC68945EFE04FC92A8722856244B246E1
:10285800F240B725050015469385856F05616FF031
:102868007F92F24062440945056182800945828071
:102878009547114563F9D706411122C426C24AC0BB
:1028880006C683471600BA8403470600A2073284A7
:10289800D98F2390F4008347360003472600930519
:1028A8004400A207D98F2391F40089472382F400BA
:1028B80009461385540036899710FB1FE780A00A44
:1028C8009307A9FF2394F4009947631BF90023A6F3
:1028D8000400B240224492440249014541018280E9
:1028E8001904C0C4FDB7828083D705008DCF0111BC
:1028F80022CC2A84C84106CE15C12EC68545EFE0F4
:10290800AFBD2A8722856244B246F240B72505004A
:102918001D469385C57105616FF0DF86F2406244FC
:102928000945056182800945828099476395F604C7
:102938008947411106C62302F700834716008346DC
:102948000600B285A207D58F2310F700834736000B
:102958008346260003464700A207D58F1305570074
:102968002311F70091059710FB1FE780C0FFB240C5
:10297800014541018280D14711456394F600C14762
:102988004DBF828083D705008DCF011122CC2A84C8
:10299800C84106CE15C12EC68945EFE0EFB32A8798
:1029A80022856244B246F240B72505002546938544
:1029B800857205616FF00FFDF240624409450561BB
:1029C80082800945828089471145639BF6008347C9
:1029D8001600834606000145A207D58F2310F7008D
:1029E8008280011122CC2A84C84106CEAE860147D6
:1029F80019C52EC68545EFE02FAEB2462A87228537
:102A08006244F240B72505002D469385457405615B
:102A18006FF04FF711456393A6028347160083466C
:102A280006000145A207D58F2310F700834736001B
:102A380083462600A207D58F2311F7008280011153
:102A480022CC2A84C84106CEAE8611C52EC685453D
:102A5800EFE08FA8B2462A8722856244F240B72564
:102A6800050035469385A57405616FF0AFF193F7BE
:102A78001600114589EB89476387F6008582231282
:102A8800D70010C301458280011122CC2A84C84195
:102A980006CE15C12EC68545EFE00FA42A872285EC
:102AA8006244B246F240B72505003D469385057558
:102AB80005616FF02FEDF24062440945056182809F
:102AC80083D705008DCF011122CC2A84C84106CEB8
:102AD80015C12EC68945EFE02FA02A8722856244BA
:102AE800B246F240B72505004546938565750561F0
:102AF8006FF04FE9F240624409450561828009455B
:102B08008280854763FCD7022304A700A304B7008B
:102B18008347160083450600A207CD8F2310F700D0
:102B28009387E6FF2311F70089476386F6000906B5
:102B380050C30145828023220700E5BF11458280EA
:102B4800014781464D4681456FF0CFE38D471145DA
:102B580063FBD7028347160083450600A207CD8F83
:102B68002310F7008347360083452600A207CD8F40
:102B78002311F7009387C6FF2312F7006386A60088
:102B8800110610C70145828023240700E5BF011103
:102B980022CC2A84884506CEAE8611C52EC6954518
:102BA800EFE08F93B2462A8722856244F240B72528
:102BB80005005D469385257705616FF0AFDC854795
:102BC80011456397F6008347060001452300F70087
:102BD800828001478146654681456FF0AFDA011171
:102BE80022CC2A84C84106CEAE86014719C52EC616
:102BF8008D45EFE06F8EB2462A8722856244F24007
:102C0800B72505006D469385257A05616FF02FCCB1
:102C1800011122CC2A84C84106CEAE86014719C5C7
:102C28002EC68D45EFE04F8BB2462A872285624437
:102C3800F240B725050075469385257A05616FF042
:102C48000FC9011106CE2EC6EF80005701C9B24543
:102C5800F2400355250005616FB0B00EF2404945BA
:102C680005618280A38401BA238401BA23A801B82C
:102C780023AA01B823AC01B823AE01B823A601B832
:102C880023A401B8938741D83707B40098C33747BE
:102C9800A000D8C3370710009306070A94C7B706E1
:102CA8005000C106D4C7930607054107D8CB37079C
:102CB800D007410798CF3707840398D337C7070051
:102CC800130707B8D8D3416794CB930607011307B6
:102CD80017F8D8D7417723AE070094D798DB8280BE
:102CE800011126CAAA84214522CC06CE2E8432C6DA
:102CF80036C43AC2EFE0EF851DC9A24612473246F4
:102D0800930700FD2300F5009947A30095002301D0
:102D1800F5002303D500A303E5002312C500AA8507
:102D280022856244F240D24405616FE0CF8CF240C4
:102D38006244D2440561828023A8A1B8828023AA74
:102D4800A1B8828023ACA1B8828023AEA1B88280CA
:102D5800011122CC4AC806CE26CA2A890144B304E6
:102D680089006368B400F2406244D2444249056174
:102D780082802EC6EFE02F9793170501C183A183A8
:102D8800B2452380F4009307140093F7F70F8504E6
:102D980063F9B700CA9709042380A7001374F40FD6
:102DA8007DBF3E847DBF411122C4138481DB03555E
:102DB8006400C16706C6FD17630BF50003C6C1C3EF
:102DC800938501BAEF80002AFD572313F400B2401F
:102DD80022444101828009C925151375F50F133561
:102DE800850E1345150082800145828023800500E9
:102DF800F94763E2C708797122D426D24ECE56CA63
:102E08005AC806D64AD052CC5EC63684B289AE8A33
:102E18002A8B814463FF3405B307940003CA070073
:102E2800138914001379F90F63050A04B3072A01FB
:102E380063C1F904B307240183CB07005E85613FB2
:102E48000DC99307FAFF2380FA0063906B031305FB
:102E580019002295B250225492540259F249624AFA
:102E6800D24A424BB24B45618280D29493F4F40F1C
:102E780055B70145C5B701458280011122CC26CA44
:102E88004AC84EC6938781DB06CE2E89D0CB8CCB21
:102E9800C8C7AA8441469305F00F4A85EFE06FA79B
:102EA8008549138481DB631735030848C1454D35CF
:102EB80041469305F00F2685EFE0AFA5054963135A
:102EC800250348446244F240D2444249B249C145CC
:102ED8000561BDBD414681454A85EFE08FA3E319F1
:102EE80035FDE1B7414681452685EFE08FA2E30A2B
:102EF80025FDF2406244D2444249B24905618280CC
:102F0800011122CC26CA4EC6AE84AA891306000235
:102F1800138581DB814506CE4AC8EFE06F9513899A
:102F280081DBA38F91C2A3013901EFB04063138401
:102F380081DB854719C1814749452300F400F240E8
:102F48006244D2444249B24905618280814781CDB9
:102F580019C98547631BF50083C7550093E707FC2C
:102F6800A382F50085473E85828089476317F5006F
:102F780083C7550093F7F703E5B70D478547E31473
:102F8800E5FE03C755001377F70313670704A38209
:102F9800E500D1BF81478DC105C103C75500930620
:102FA800000C85471377070C6308D70093060004C5
:102FB8008D476303D70089473E858280411122C42B
:102FC800005D06C626C21DC8AA84085009C5971008
:102FD800FB1FE780208E485009C59710FB1FE7802C
:102FE800608D085409C59710FB1FE780A08C2285C7
:102FF8009710FB1FE780008C23AC0402B2402244E8
:10300800924441018280938781DB09E903C7270045
:103018001385870111C7138501B88280138587013D
:10302800828003C5A1DB828003A541DC828003A5E1
:1030380081DC828083A7C1DC88438280938781DB1F
:10304800D44B9842050798C203C537009307F00F81
:103058006305F50091656FE00F8E8280011122CC27
:1030680006CE2E8432C6EF8000249147B245631EF7
:10307800F50083A7C1B985C303A30700630D030047
:1030880022856244F2400561028383A741B981C762
:1030980003A34700E5B7F240624405450561828015
:1030A800011122CC2A840355450006CE26CA4AC8F7
:1030B8004EC6EF80000835C52A8983440500834938
:1030C800C500ED3D4A85EF80507603554400EF80FA
:1030D8000019138981BA83470900A1CB6397970424
:1030E80083C591BA2685EFF0DFB519E12300090001
:1030F80003554400EF80201B9147631DF50093871B
:1031080081DB8356440003D767006395E6007D574B
:103118002393E700F2406244D2444249B249056130
:10312800828081499304F00F6DB79307F00FE38114
:10313800F4FC8346640003564400034524004E878C
:10314800A685EFF0FFB96DB779715EC6AA8B2E859B
:1031580052CC56CA5AC806D622D426D24AD04ECE07
:10316800AE8A328B368AEF70D07C79CD045D2A899D
:10317800E1CC9C50614599C3130540039C5481C719
:1031880051054205418163050A00710542054181E7
:10319800DC5081C7590542054181EFD09FBB2A8485
:1031A80045C561468145EFD0BFEC83C941DB6394D7
:1031B800090083490900930700FD2300F400A9478B
:1031C800A30074012301F400230364018C5023122B
:1031D80054011305840191C908C47146930A440334
:1031E8009700FB1FE780207856858C5491C948C406
:1031F8005146930A45019700FB1FE780C076568524
:10320800630C0A0008C87146D285930AC501970065
:10321800FB1FE78040755685CC5099C548C859466C
:103228009700FB1FE7802074A2854E85EFD0BFBCB6
:103238002254B2509254F249624AD24A424BB24B9B
:103248004A85025945619DBBB25022549254025995
:10325800F249624AD24A424BB24B4561828001111F
:103268004EC6AA892E854AC806CE22CC26CA2E89E1
:10327800EF70306C21C583C441DB99E083440500BD
:103288001945EFD01FAD2A8415C981451946EFD0DD
:103298003FDE930700FD2300F400B947A300340183
:1032A8002301F40023122401A2856244F24042491A
:1032B800B2492685D24405616FD0FFB3F24062441B
:1032C800D2444249B2490561828039715ECEAA8BE7
:1032D8002E8526DA4ED652D456D25AD006DE22DCB5
:1032E8004AD8AE84328BB68A3A8ABE8942C6EF7013
:1032F800506421C92A894145EFD0BFA52A8431C12C
:1033080041468145EFD0DFD603C541DB19E10345CE
:103318000900930700FD2300F400BD472301F400D2
:10332800B247A30074012312940023046401A30488
:10333800540123054401A30534015CC4A285EFD0E0
:103348009FABF2506254D2544259B259225A925AFF
:10335800025BF24B21618280797126D2AA843945B9
:103368004AD04ECE06D622D42EC6B2893689EFD0A0
:103378005F9E21C1B2459307000D2310F500B147A8
:103388002A842312B5002301F500CE8519051946B4
:103398009700FB1FE780205D23062401A2852254A5
:1033A800B2500259F24913F5F40F925445616FD0A7
:1033B8009FA4B250225492540259F2494561828026
:1033C800411126C2938481DB03C7340006C622C498
:1033D8004AC09307F00F630AF7042A893945EFD0EA
:1033E8005F972A8439C1930700FD2300F500A300E5
:1033F800250123010500938584010D0519469700D1
:10340800FB1FE780405683D78400A28503C534009C
:103418002315F40083C714002306F4002244B240A5
:103428009244024941016FD01F9DB2402244924408
:10343800024941018280011156C2AA8A314526CA31
:103448004AC84EC652C406CE22CCAE84328AB68949
:103458003A89EFD01F9039C52A842685EF70704DC0
:103468001DCD03450500930700FD2300F4009D478B
:10347800A30054012301F4002312940023134401F0
:103488002314340123152401A2856244F240D24456
:103498004249B249224A924A05616FD0DF9503C575
:1034A800B1DBD1B7F2406244D2444249B249224A20
:1034B800924A05618280397162CC2A8C594526DA94
:1034C8004AD84ED652D456D25AD05ECE06DE22DC28
:1034D800AE8432C636C4BA8B3E8BC28A468A8359BA
:1034E800010403494104EFD0DF8635C5324693070E
:1034F80000FDA2462300F5009547A301C500A300DF
:1035080085012301F5002A8419461105A9C2B6854B
:103518009700FB1FE780204523066401230A240146
:103528002315740123175401231844012319340166
:10353800A2856254F2504259B259225A925A025BF9
:10354800F24B624C2685D25421616FD0DF8A8145C7
:10355800EFD01FB2D1B7F2506254D2544259B25987
:10356800225A925A025BF24B624C216182804111CD
:1035780022C4138481DB8347240006C626C29DC764
:10358800AA851946138501B89700FB1FE780A03D5F
:1035980003452400938501B8EFF05F9B2244B240B5
:1035A800138501B8924441016FA0307CB240224497
:1035B8009244014541018280411126C2938781DBF3
:1035C80006C622C44AC003C737009307F00F938486
:1035D80081DB6302F7042A892945EFD08FF72A8413
:1035E8001DC9930700FD2300F500A147A30025018D
:1035F8002301F50083C72400938501B8A301F500D2
:10360800194611059700FB1FE780E03503C5340014
:10361800A285EFD04FFE03C724008D47631FF70034
:1036280083A781B999CB03A38700630803002244C9
:10363800B2409244024941010283B240224492447A
:10364800024941018280797122D406D626D24AD015
:103658004ECE52CC56CA09445DC92A890355050085
:10366800AE895144EF70F02CAA8455C19387C1C329
:1036780083C737008546BA8AFD1793F7F70F494481
:1036880063F7F6080347C500A1476314F700639082
:1036980009089C5C4544A5EF916593854571130520
:1036A800C0029700FB1FE780E01788DC2A8A4D4498
:1036B80039CD1306C0028145EFD09F9B835709007F
:1036C80093064A0036852311FA007146930549008E
:1036D80036C69700FB1FE780002989472300FA00B8
:1036E80003C5C400B2460356090083C5C1C36115AA
:1036F80013351500EFA0E02E2A8463860900CE85D5
:103708002685EF80703D01C42685EFF03F8B22852A
:10371800B250225492540259F249624AD24A45613F
:10372800828083C7F1C30547FD1793F7F70F6378C6
:10373800F708894751C6011122CC26CA4AC84EC685
:1037480052C406CEAA89368AB2842E89EF70701EBA
:103758002A84D14729C9485509C59700FB1FE78026
:103768006015F1452685EFD01F9348D4CD4705CD88
:103778008346C40021478147639FE600630D0A0022
:103788000347A5010356050193062501AA854E8521
:10379800EF80E02CAA8703474400630F09001367F2
:1037A80067002302E400F2406244D2444249B2492D
:1037B800224A3E850561828013674700DDB7C94705
:1037C8003E858280E14763EAA700931715001385B9
:1037D80041D83E9503550500828041657D1582805C
:1037E800011122CC2A842E8526CA06CEAE84EF701B
:1037F80050140DCDB7470F009387F723094563E2AF
:10380800870281450A854146EFD09F86A685231009
:1038180081000A85418023018100A3010100EF9006
:10382800D07EF2406244D244056182804945D5BFCA
:10383800A38EA1C282806FA0E013797152CC2A8A2C
:10384800328522D426D24AD04ECE56CA5AC85EC62F
:1038580006D662C4AE8BB28A368BBA843E89C289D8
:103868004684EF70100D15C92A8C63140A02137769
:103878004B008347450015CF93E727012302FC003F
:103888008DEC631C0902639A090205E8ED9B23028B
:10389800FC00832B8C03639F0B06B2502254925476
:1038A8000259F249624AD24A424BB24B224C456114
:1038B8008280F59B93E70701D1B793E7470023027E
:1038C800FC0001CC1C484146A2852324FC021305B8
:1038D8008C019700FB1FE780000963910B02D5D884
:1038E8000325CC0209C59700FB1FE780A0FCF14522
:1038F8002685EFD04FFA2326AC0261BFE30B09F807
:103908000325CC0209C59700FB1FE780A0FAF14503
:103918004A85C5B79DC483A70B0299EB916593852A
:10392800357171459700FB1FE780C0EF23A0AB02FC
:1039380003A50B0219C57146A6859700FB1FE780F2
:1039480080026388090283A74B0299EB91659385EE
:10395800257159459700FB1FE780C0EC23A2AB02F5
:1039680003A54B0219C55946CE859700FB1FE78072
:1039780080FF1DC483A78B0299EB91659385157110
:1039880051459700FB1FE780E0E923A4AB0203A59C
:103998008B0219C55146A2859700FB1FE780A0FC42
:1039A8002254B2509254F249B24B224CCA865A86DB
:1039B8000259424BD6855285D24A624A45616FF018
:1039C800AFF8011126CA52C406CE22CC4AC84EC648
:1039D8002A8AAE84EF70E07535C1AA893945EFD0DF
:1039E8004FB72A8421CD03C941DB6314090003C9F9
:1039F80009009307000D2310F400AD472301F400DC
:103A0800938569001305340019469700FB1FE7806A
:103A180080F593F71400858085882306F400A306B3
:103A2800940023154401A2856244F240D244B2496D
:103A3800224A4A85424905616FD0EFBBF240624491
:103A4800D2444249B249224A05618280411122C4C6
:103A5800138481B8084006C619C59700FB1FE78084
:103A680060E523200400B240224441018280011114
:103A780006CE22CC26CA4AC82EC6EF70806B29CD46
:103A8800B24503C941DB0CD5AA8463140900034974
:103A980005004145EFD0EFAB2A841DCD9307000DFB
:103AA8002310F500A5472301F50083C7540093852B
:103AB80064001105A30FF5FE19469700FB1FE78068
:103AC80080EA9C54A285F2405CC46244D2444A8590
:103AD800424905616FD02FB2F2406244D244424954
:103AE80005618280797122D406D62A842EC6EF70A9
:103AF80040640DCD8346C5001147AA8749456393A5
:103B0800E6029C5FB24599C383C567010808EF8048
:103B18009005B7D60500938686BE1008894522858C
:103B2800EF709078B2502254456182805145DDBFD4
:103B380083C7F1C30547FD1793F7F70F637AF704B7
:103B4800894721CA411122C426C24AC006C6B28486
:103B58002E89EF70005E2A84D14705C563080900E5
:103B68008347450093E727002302F5004146A685D1
:103B7800130584019700FB1FE780E0DE9C481CD4F6
:103B88008147B2402244924402493E8541018280E5
:103B9800C9473E858280797122D406D62A842EC6EA
:103BA800EF70205901CDB2452285230EB1006C0873
:103BB800EF80006FB2502254456182805145DDBFCD
:103BC8006F706064C1671387E7FF6393E50283A79B
:103BD80041B991EB494582804945B240224492441B
:103BE80002494101828003A30700E30503FE028323
:103BF800411122C426C24AC006C6FD172A892E844E
:103C0800B2846394F50283A741B991CB9C4381CBDD
:103C1800829711E5238421BBA38491BA7DBFA68531
:103C28004A85EFF00F8255F9F5B72E85EF70605091
:103C380045D5834705000D45E39127FB228522449E
:103C4800B2400249A685924441016FA0900F614796
:103C58006360A7044111416722C406C626C27D17C6
:103C68002A8409456381E502C547AE846315F400DB
:103C78002E85EFA0101793171400138441D8A2972C
:103C8800239097000145B24022449244410182802A
:103C980009458280011106CE2AC6EFE0BFFCEF106D
:103CA800E01BF92DEF90E17D938781DB130700F08E
:103CB8002391E7002382070032451387C1C3FD56CD
:103CC800A300D700F240238EA1C2954505616F502D
:103CD8005069597193970501A6D286D6A2D4CAD045
:103CE800CECED2CCD6CADAC8DEC6E2C4E6C2EAC0B4
:103CF8006EDEC187AE8463D5074603C5C1C3EFD066
:103D08002F89AA8D138481DB63930D022165258D8C
:103D1800B650265496540659F649664AD64A464B32
:103D2800B64B264C964C064DF25D6561828083C782
:103D38000D001307200A639CE7000349340003D5EC
:103D48002D00C1656E86FD15EFF04FB105A21387F2
:103D5800C1C303491700130710096396E71483C703
:103D68001D001547639EE7006E85EFF06FB36E8503
:103D7800EFC07FFB03C5C1C3EFD08F81AA8D69B7A0
:103D880039476396E71403D54D008567A507631483
:103D9800F50483A58D0003CA0500631B0A00850589
:103DA80081C91946138501DD9700FB1FE780A0BB79
:103DB8000347040085476318F70E63080A002300C9
:103DC80004005285EFF0CFDF5DB789472300F40088
:103DD800EFA0607969BF096793072700631CF504A2
:103DE80003AA8D0063010A0C83470A0089EF834701
:103DF8002A0003471A00A207D98F2314F400834727
:103E08003A00A300F400034704008947631DF7083C
:103E180083470A0091C72300040003450A005DB7E1
:103E280083451400035584008D472300F400EF50A8
:103E38001056E5B7930757006319F50083A78D005F
:103E480003C50700EFF04FF71DB7F977E917AA97F1
:103E5800C207C183914663EEF60083A781B9E38860
:103E680007F09C43E38507F06E858297E31105F020
:103E78001DA82D07631EE50083A701B9E38907EE96
:103E88009C43E38607EE0965EE852D058297F9BF09
:103E980089671387C7006311E50283A78D0083C76D
:103EA8000700E38607EC9307F00FE302F9ECEE85D1
:103EB8004A85EFC05FF47DBDB907E316F5FE83A719
:103EC80041B9E38607EADC43EE85E9F34DB53D47A2
:103ED8006397E70403D54D0089671387D700E3008C
:103EE800E5FE13879701E30CE5FCCD07E31DF5FA22
:103EF80003576400C167FD17631DF70083A741B925
:103F0800E38707E6DC43E38407E60965EE854D05AC
:103F1800B5BF83A7C1B9E38C07E49C43EDB713078A
:103F2800E003E392E7F883C72D0005476393E70EA4
:103F380083C76D00138D81B8F1E383270D00C5CFCA
:103F480003CA0700214903C57D00138C8D00E28553
:103F5800EFF04F8483C74D01A383AD0083D80D01D3
:103F680003D8ED0003D74D002A8603C53D003EC2A5
:103F780083D72D01E286D2853EC0CA87EFF0AFD342
:103F880083C73D0095E7DD4783D80D0103D8ED00D1
:103F980083C67D0083D54D003EC283D72D0162873D
:103FA80005463EC05285CA87EF702045A381AD0003
:103FB80083270D0081C71145EFF05FA9138A81BAE5
:103FC80003450A00E30505DA83C591BAEFE07FC728
:103FD800E30F05D883C63D0093071003638AF600F4
:103FE80003D64D0083450A004A873685EFE05FCF48
:103FF800238401BAADBB034A3400A9B783A781B9AA
:10400800034A34001149A1D3DC4395DF0145829767
:104018001DBF29476392E70A83C76D00138A81B8D9
:10402800C9E383270A00BDCB03CD0700214903C696
:104038007D0083C70D0283D8CD01058AA383CD00F7
:1040480003D8AD0103D74D0003C53D003EC283D759
:10405800ED01138E8D00F2863EC0EA85CA8772CEC6
:10406800EFF06FC583C73D00724E95E7DD4783D8F3
:10407800CD0103D8AD0183C67D0083D54D003EC276
:1040880083D7ED01728705463EC06A85CA87EF70FF
:10409800C036A381AD0083270A0029BF034D340031
:1040A80071B783A781B9034D34001149C9D3DC43E3
:1040B800BDDF01458297A5BF0947639CE70083A739
:1040C80001B9E38607CADC43E38307CA6E85829792
:1040D80079B92D476398E70083A701B9E38907C831
:1040E8009C47DDB70D476397E7006E868D4503D57E
:1040F8004D0099B91947E398E7DA9305610213056A
:104108001031EF90C1422C1013052031EF9021425D
:1041180003D66D008357810203D54D0063E8C700BD
:1041280083D68D000357610263F7E600930500020A
:10413800EFA0204A2DB96374E6002393ED0063F4E1
:10414800D7002394FD0003D7CD0083D6AD0003D656
:104158008D0083D56D0001488147EFA0404701B924
:1041680093F7150099CB83A701B989C7DC4399C395
:104178000145829713C5140061BE93F7250099CBBA
:1041880083A781B989C7DC4399C30545829713C5BD
:104198002400BDBE93F745000145E38B07B683A70E
:1041A800C1B8138481DB99CB85472302F40083A728
:1041B80081B989C7DC4399C30545829748442C10C7
:1041C800EF90204E2810EFF08FBA83D761DA91CBA9
:1041D800130600643386C70203C5C1C39145EFD0F7
:1041E8004F8613C544002DB6411122C42A84554573
:1041F80006C6EFF02FDDB335A00022852244B24079
:1042080041016FA00038797122D406D68D472E84DB
:10421800631FF50003D7A50083D6850003D6650084
:104228000345340083D54500EFF0EFA009A889675E
:104238001387D700631FE50203C5250019E58547E5
:10424800B25022543E854561828083A681B8E5DA62
:1042580003C6360083C50600814802C202C0014871
:10426800814701479106EFF00FA50545EFF00FFED6
:10427800F9B71387E700E304E5FC13873701631AEE
:10428800E50003C5250045DD014781460146814516
:1042980061BFE507E305F5FA41677D178147E3113B
:1042A800E5FA03C75500C947E31BF7F883D6E500CD
:1042B80003D6C5000355840083D5A500EFA0E032DE
:1042C80051C15D45EFF00FD03335A000231CA1008C
:1042D80083454400035524003008EF60105A835783
:1042E8008101B1FF6C0813051031EF90412493054B
:1042F800E10113052031EF9081238357C101035752
:1043080084006374F7002314F4008357E101035712
:10431800A40063F4E7002315F40083558400835751
:10432800A40063F4B7002315B4000357E4008356D0
:10433800C4000356A4000355240001488147EFA098
:104348000027F5BD8547231CF10059B7C1671387BE
:10435800E7FF639CE50083A781B88DC383C7070087
:104368000D47639BA7006FA0C023FD1749476395BE
:10437800F50083A781B8E5FB3A8582804947EDBF00
:10438800238A01BA23AE01BA23AC01BA3757050014
:10439800938781DD1307078298C3375705001307F2
:1043A8008785D8C3375705001307C79698C7374777
:1043B80005009387C1BA1307473598C337470500E7
:1043C8001307E720D8C3828039714AD883A7C1BBB5
:1043D80006DE22DC26DA4ED652D456D25AD05ECE2B
:1043E80089EF0545F2506254D2544259B259225AC3
:1043F800925A025BF24B2161828003470500854790
:104408001389C1BB2A846300F70403468500930619
:1044180095009305F1000545EFE05F9D814719C1BF
:10442800834705008346040011476386E60203A715
:1044380081BB8D4603471700630FD70089CF01CF93
:1044480011E5014545B781470145E9BF8546631A2E
:10445800D7088D8BFDD703451400130B2400DA858C
:10446800EFE05FB3A300A400832709002A8A8149EB
:10447800A1C3930BF00F83C741BB63FBF90203256C
:104488000900939A4900569583470500638077078A
:1044980083471500639C47051946DA850905EFC06F
:1044A8005FC329C58324090003470400D694A9E4FF
:1044B800834604009147E386F6F883270900D1D3A1
:1044C80003C641BB9305F00F0147E30CE6F6BE8433
:1044D800C10703C507FF6305B50C05071377F70F79
:1044E800EDB78946E31FD7F4858BADB7850993F9F6
:1044F800F90F51B788C4E5A09147631AF706C84475
:1045080005C583478400034605006304F606034790
:1045180004009147631BF706C84419C597F0FA1FB2
:10452800E780403923A604000345840091659385FC
:10453800E571050597F0FA1FE780C02E05C503470A
:1045480004009147631CF704C8C48347840093059B
:1045580094000505A30FF5FE0346840097F0FA1FA3
:10456800E7806040034584003335A000A5BD88443A
:1045780041BF930594000505EFC0BFB58547E31813
:10458800F5F85545EFF00FA4BDA8884451DD97F024
:10459800FA1FE780203223A4040079B788C475B7CE
:1045A8002380D40083471400DA8513852400A38070
:1045B800F400194697F0FA1FE780E03A03458400B3
:1045C80091659385F571050597F0FA1FE7808025B9
:1045D80005C5034704009147E31EF7F0C8C48347A5
:1045E8008400930594000505A30FF5FE0346840097
:1045F80097F0FA1FE780203783478400E39307DEAC
:10460800034504007D1513351500E9BB011122CCC3
:1046180083A7C1BB06CE26CA4AC84EC652C48DC39C
:104628001384C1BB2E8AAA840149084063129902E7
:10463800630C0A0497F0FA1FE780C02723200400C0
:10464800F2406244D2444249B249224A056182801A
:1046580093194900B3073501884709C997F0FA1F2C
:10466800E78040251C40CE9723A407001C40CE9726
:10467800C84709C997F0FA1FE780C0231C40BE99B4
:1046880023A60900050955B745DD13964400814561
:10469800EFC01F9E144081477D5613F7F70FE37153
:1046A80097FA1397470036972300C7008507F5B791
:1046B80079714AD083A781BB06D622D426D24ECEA2
:1046C80052CC56CA5AC85EC6D1CFAA89138981BBB3
:1046D800938A41BB014411ED83A6C1BB99CA03C6A5
:1046E8000A002A8481479305F00F13F7F70F6366D2
:1046F800C708131534002105EFC0AFE5AA8401E906
:104708002145EFC00FE5AA8431C10144CD49930783
:1047180000FD2380F4008547A38034012381F40041
:10472800A381840055C49389840023A23401014ADB
:10473800930BF00F83C70A006373FA0039E88327E5
:104748000900A68503C50700EFC0EFEA03C50A0004
:1047580081456D3D0325090097F0FA1FE780801514
:1047680023200900B250225492540259F249624A55
:10477800D24A424BB24B4561828013974700369725
:10478800034707006305B70005041374F40F850792
:10479800A9BF83A7C1BB93154A00BE9583C705006F
:1047A800638477032380F90083C7150013852900E4
:1047B8007D14A380F900194689051374F40F97F046
:1047C800FA1FE780401AA109050A137AFA0F9DB764
:1047D80023A20400ADB7411122C406C62A8405E10C
:1047E8000945EFE03FFE2A8611C503C5C1C38545CB
:1047F800EFC03FA50545EFF03F9F2A8409C903C5CF
:10480800C1C38545EFC09FB92285EFF07FEAB2406A
:10481800224405454101828089671387B7006319DF
:10482800E50083A781BB95C39C4503C5070065B711
:104838001387C7008147631BE5009C4503C5070034
:10484800854709C583A781BBFDF381473E858280E3
:10485800797106D622D426D24AD04ECE52CC56CA28
:104868005AC85EC662C461CD83473500AA8995C31C
:10487800404105C05945EFE0FFF4931A850193DAEA
:104888008A410149130B000DB54B83C73900636E8C
:10489800F900B250225492540259F249624AD24A5B
:1048A800424BB24B224C456182808307840263CF1E
:1048B800570783A781BB138C81BBADCB2285EFF053
:1048C800BFB02DC5034584005105EFC08FC8AA8429
:1048D80031CD231065012301750183470400194672
:1048E80093052400A301F50083078402150523031B
:1048F800F50083471400A30FF5FE97F0FA1FE78031
:104908008006034684002386C4001DC6138544011F
:1049180088C89305940097F0FA1FE780C00483279E
:104928000C00A68503C50700EFC0EFCC05091304EA
:1049380094021379F90F91BF23A80400CDB783A778
:1049480081BBA1DBEFF0DFD62254B250925402595A
:10495800F249624AD24A424BB24B224C0145456168
:104968006FF09F88797106D622D426D24AD04ECECF
:1049780052CC56CA5AC85EC662C479C1834735004C
:10498800AA8995C3444185C05945EFE0BFE3931A0E
:10499800850193DA8A410149930B00FD414C83C795
:1049A8003900636EF900B250225492540259F24908
:1049B800624AD24A424BB24B224C4561828083877D
:1049C800F40063CA5707138A81BB83270A00A5C767
:1049D8005145EFC00FB82A8439CD23007501A300D3
:1049E80005002301850183C7040019469385240027
:1049F800A301F5008387F4001505A306F50083C716
:104A08001400A30FF5FE97F0FA1FE780C0F583C7DF
:104A18008400938594001305C400A305F400194687
:104A280097F0FA1FE78020F483270A00A28503C5C0
:104A38000700EFC04FBC0509C1041379F90F85B70A
:104A480083A781BBADD3EFF0BFC62254B2509254B6
:104A58000259F249624AD24A424BB24B224C0145B2
:104A680045616FF06FF883A781BB95C703C707003F
:104A78008D476313A70203C5C1C34111854506C607
:104A8800EFC0DF9113050003EFF09FC2B24001456C
:104A980041016FF06FF5C9473E858280797126D252
:104AA800938481BB9C4006D622D4BDEF03C7F1C3D3
:104AB800C947298B25C791652A849385D5711145E6
:104AC80097F0FA1FE78000D688C0CD4721C9114664
:104AD800A28597F0FA1FE78000E91545EFE09FCE21
:104AE800AA841945EFE01FCE2AC69305F1011305E4
:104AF800F041EF704148938781DB83C62700034765
:104B0800F1013246B336D00011C389060347340099
:104B180003452400A685EF909026AA87B250225418
:104B280092543E8545618280C547CDBF83C7F1C396
:104B38005D71A2C486C6A6C2CAC04EDE52DC56DA71
:104B48005AD8A18B4944638A070E83A781BB414485
:104B58006395070E2A89EFF0AF8683C781C2554453
:104B6800637DF50C83A781B845446398070C91656C
:104B78009385C571294597F0FA1FE780A0CA23A439
:104B8800A1B84D445DC92946CA8597F0FA1FE78048
:104B980080DD83A781B883C71700DDCB2D45EFE003
:104BA8007FC22A843145EFE0FFC12A899305F102CB
:104BB8001305F041EF70213C938781DB83C7270001
:104BC8000347F102B337F00011C3890741453ECED0
:104BD800EFE05FBF2A8B3D45EFE0DFBEAA8A35458F
:104BE800EFE05FBE2A8A3945EFE0DFBDAA8921459B
:104BF800EFE05FBD2ACC1D45EFE0DFBC03A781B81D
:104C08002ACA0345370093054700EFE02FB403A7EE
:104C180081B8E248524803462700F247AA865AC696
:104C2800228556C452C24EC01107CA85EF90B015EE
:104C38002A8401C50D45EFE07FE12285B640264470
:104C480096440649F259625AD25A425B616182809F
:104C58002545EFE03FB72A842945B1B783C7F1C39B
:104C68000145A18B99C31385C1BA6FE04F8D4111DE
:104C780022C4138441BB26C2AA8403450400854587
:104C880006C6EFF0BF9883C7F1C3A98BB5C7230049
:104C98009400138581DDEFE02F8A9384C1BB9C408B
:104CA80099C74D45B2402244924441018280034550
:104CB800040019E10145FDB791659385B5711205A9
:104CC80097F0FA1FE78000B688C061DD034604004C
:104CD80081451206EFC0CFB9834604009040814752
:104CE800FD5513F7F70FE377D7FC13974700329773
:104CF8002300B7008507F5B7014523000400EFE05E
:104D0800AF834DBF411122C403A5C1B806C619C55A
:104D180097F0FA1FE78000BA23A601B8B2402244F0
:104D280041018280011122CC06CE26CA8D472E84ED
:104D38006313F50603C73500E94703D54500938497
:104D480081DB6316F70083D764006382A706EF60F0
:104D5800403E09C5835764002317F5000357A40094
:104D68008356840003566400835544000345340089
:104D7800EFE06FEC0357440083D764006309F70042
:104D88008547F2406244D2443E8505618280FD57E2
:104D98002393F400F5B78967CD07631DF50083C732
:104DA800250031476385E7004547E39BE7FCEFD0E3
:104DB8009FFFF9B741677D178147E314E5FC83C678
:104DC80055004947E39FE6FA83C54500035524008B
:104DD800300023140100EF6020255DB7797122D4DB
:104DE80083A7C1B806D626D24AD00545B5C30D4516
:104DF800EFE05F9DAA841145EFE0DF9C2A899305C7
:104E0800F1011305F041EF700117938781DB83C629
:104E180027000347F101B336D00011C3890683A7E1
:104E2800C1B836C603C5370093854700EFE00F9237
:104E380003A6C1B8B2462A878348B6000348A6002D
:104E48009307460003462600CA852685EF90207200
:104E5800B250225492540259456182807D5723866C
:104E6800E1B0239001BC23A401BC23A601BC23A864
:104E780001BC37570500938741DE1307A7EF98C396
:104E8800375705001307871DD8C337570500130781
:104E980047DE98C7B75705009387C7D223A2F1BC4E
:104EA8008280411126C283A7C1B806C622C48DCF0D
:104EB8002A840D45EFB0FFE9AA8505C1930700FDD7
:104EC8002300F5008D47A30085002301F50083A783
:104ED800C1B803C50700EFB01FF219C42244B2409D
:104EE800924441016FF01FE2B240224492444101D2
:104EF8008280797126D283544500896706D622D4E8
:104F08004AD04ECE52CC56CA13876700639EE4023D
:104F180083A7C1B8014481CF18450345070015E1AF
:104F28000547A380E7000545EF90206505442285E5
:104F3800B250225492540259F249624AD24A456107
:104F48008280EFF01FF6DDB7138797006367970439
:104F58001384C1B0034704009307F00FE308F7FC7C
:104F68001C45114503C90700EFB0BFDEAA855DDD0A
:104F7800930700FD2300F50089472301F500F97721
:104F8800E117BE9493B41400A3002501A301950072
:104F980003450400EFB03FE651BFA9070144E39879
:104FA800F4F883A7C1B8CE8AD9D3184503C417002B
:104FB8008547034A0700138981DB630CF4028347A2
:104FC8004900ADF70D45EFB0DFD8AA8505C19307B5
:104FD80000FD2300F5009147A30045012301F500DA
:104FE80083A7C1B803C50700EFB0FFE0EFF09FD17A
:104FF80035BF83A781BC91EF0145EFE0AFFC2A865E
:1050080011C603C5C1C38945EFC0AFA383A7C1B803
:10501800A9A003C60700938617009305F10005456C
:10502800EFD0DFDC71D983470500858BF1D70545C3
:10503800EFE04FF99307B003AA8463F9A70203C509
:10504800C1C35D66130606708945EFC04FB29384ED
:1050580044FC239091BC83A7C1B80947A380E7000B
:105068008347490089CB23020900D1B513060064A0
:105078003306C50271B75285EFF0BFE24DBD7971B5
:105088004ECE83A7C1B822D406D626D24AD052CC57
:10509800454489EB9387C1C383C7370013F757008B
:1050A80019EB49442285B250225492540259F249CC
:1050B800624A4561828003A781BC414465D70347A2
:1050C80007006DD3858B2E892A8AC9C783470900B3
:1050D8000547F91793F7F70FE365F7FC9165938593
:1050E8007571314597E0FA1FE780C07323A6A1B810
:1050F8004D444DD923004501A30005002946CA8522
:10510800090597F0FA1FE7800086930571001305DB
:10511800F041EF60516683477100A9E703C7A1DB3F
:105128008D476311F704EFD03FF02C00EF806057F4
:105138002800EFE0CFC34545EFE0CFE801443DD17B
:10514800130600643306C50203C5C1C39145EFC009
:105158004F8F89BFEFE0DFA62A84EF60800DE377E9
:10516800A4F6ADBFEFF09FC72A840DDDEFF09FB91D
:1051780015BF411126C283A7C1B806C622C44AC0BA
:10518800A1C383C707000D44639DA70203C5C1C31C
:105198008945EFC0AFA003C5C1C39145239001BCA9
:1051A800EFC0CF9FA38E01DA83A7C1B80145A380C2
:1051B80087002244B2409244024941016F90E03B8B
:1051C80049442285B24022449244024941018280E6
:1051D800411106C622C426C285476315F506138405
:1051E80001BC83570400A1C703C7C1DB29E3130728
:1051F800B0036369F70203C5C1C38945EFC00F9ABD
:10520800035604009307006403C5C1C33306F602BE
:105218008945EFC00F8323100400B2402244924412
:1052280041018280938747FC2310F400FDB783A7D0
:10523800C1B8E5D72244B240924403C507004101F2
:105248006FF03FF383A7C1B8E9DB9387C1C383C776
:105258003700918BF9D303C5C1C38945EFC00F94BB
:105268002244B2409244239001BC41016FF09FA9AF
:1052780083C7F1C3958BD9CFB9CD83A781BCD9CBCF
:10528800FD4763EBC70811C2C1CA411122C44AC015
:1052980006C626C22386A1B036893284A1C193846A
:1052A80081BC88407D4681450505EFB07FDC88409C
:1052B800CA852286050597E0FA1FE780C06A8C40F8
:1052C8002285238085002244B24092440249850504
:1052D80041016F90002A83A701BD55B7938401BD92
:1052E80088407D4681450505EFB09FD88840CA852E
:1052F8002286050597E0FA1FE780E0668C40228544
:10530800238085002244B240924402498505410128
:105318006F9060264945828009458280797106D65A
:1053280022D426D24AD04ECE52CC8D4763FCA70059
:1053380009442285B250225492540259F249624AD1
:105348004561828003C781DB4144E314F7FE9387FC
:1053580081DB83C927009307F5FF93F7F70F85468D
:105368002E842A89938481DB63E4F60695E19945C6
:105378002800EFD0FF9D03C5C1C3914523812401B7
:10538800EFC0CF81A382040029CC2381340155B713
:10539800194681452800EFB0BFCD19462C0022855B
:1053A800EFB03FD351F519469305F00F2800EFB041
:1053B8003FCC19462C002285EFB0BFD135F9A28524
:1053C8001946280097E0FA1FE780E059014465B7BD
:1053D8000144E312E5FAC8442C00EF80802C2A84AB
:1053E80059BF631409000144A9B72800EFE02F98BA
:1053F8002A8441FD8D47E318F9FE4545EFE08FBC4F
:105408001375F50FA382A40079DD03C5C1C35D66DA
:10541800130606709145EFB09FF521BF83C7F1C30E
:10542800918B89CF4111138541BC06C6EFD0FF91FE
:10543800B2407D57239FE1DA4101828001456FD058
:10544800DF90411122C403A581BC06C626C24AC00A
:10545800138481BC19C597E0FA1FE780A045232073
:10546800040003A501BD938401BD19C597E0FA1F87
:10547800E780404423A004001389C1C3834739004F
:10548800958BADCB138541DEEFD0DF8B8347390099
:10549800958B81EB4D45B24022449244024941012B
:1054A80082801169930569711305000297E0FA1F5C
:1054B800E780403708C079DD130600028145EFB068
:1054C8003FBB930559711305000297E0FA1FE78067
:1054D800603588C001C9130600028145EFB05FB985
:1054E800014555BF084097E0FA1FE780A03C2320FC
:1054F80004004DB70145EFD0FF84DDB703C70500B1
:10550800937625009377D70F99C2936727001318CE
:1055180085011358884113F7F7076354080013E708
:105528000708937685009377770F99C2936787006A
:105538001377050293F6F70D19C393E60702238044
:10554800D500634508009377A50281CB8347060001
:1055580093E7C7002300F60082807DFD834706009D
:10556800CD9BCDBF2D456317071403C80500094718
:10557800631EE812C84103471500034505002207CA
:10558800498F42070D654187930825A06309170BCA
:10559800011122CC26CA4AC84EC606CEBE89B68498
:1055A80032842E8963CEE800930705A0630DF702C5
:1055B800130515A0630EA704239004000545A5A0B4
:1055C800930745A06307F7086346F706130565AA1E
:1055D800E314A7FE85472390F600DC4583C7070040
:1055E8002300F60081A0C845EFB0BFA9420541815C
:1055F8004E86637335012A862390C4004206418291
:105608008325C900228597E0FA1FE780C03519A8CD
:10561800DC4583D70700239006012300F600A18309
:10562800A300F6000145F2406244D2444249B2491F
:105638000561828099472390F6001946D1B78547BE
:105648002390F600DC45014583C707002300F600D8
:105658008280DC45A9CB21472390E60003D70700C9
:105668002300E60003D707002183A300E60003D741
:1056780027002301E60003D727002183A301E600C2
:1056880003D747002302E60003D747002183A3027C
:10569800E60003D767002303E60083D76700A183EA
:1056A800A303F60041B723900600ADBF2390060080
:1056B80005458280828083C8050089476391F81474
:1056C800DC41797122D406D626D24AD04ECE52CCAD
:1056D80003C8170083C707002E8422083368F80020
:1056E80042088D6713580841138327A0630A680E80
:1056F8002A8A3A89B684B285634C0301138707A0C6
:10570800630AE802938717A06303F808854711A87E
:10571800138737A06303E80A138767AA8D47E3173F
:10572800E8FEB250225492540259F249624A3E8528
:1057380045618280484432C6EFB0BF94420541813A
:105748009D47E36025FFB3099900D547B24563D467
:105758003701B547F9B748442686C2094A9597E004
:10576800FA1FE7804020484493D909015946330677
:10577800364181454E95EFB0BF8F83A781BD99E330
:10578800814745B79C438145E5DF52852DA0AD474C
:10579800E31909F8E39F16FB8347160083460600C2
:1057A8005844A207D58F2310F70083A781BDE9DBF2
:1057B8009C438545F1D78297E1B7AD47E31309F6D6
:1057C8009947E398F6F84844194697E0FA1FE780A6
:1057D800801983A781BDCDD79C43DDD38D4575B78F
:1057E800AD4721F38547E396F6F60347060093078E
:1057F8000008E3E8E6F2DC452380E70051B7854777
:105808003E85828023AC01BC89472388F1B0138F81
:1058180001B18147938E01DF5947B386FE0023808B
:1058280006008507E39BE7FEB707A000938541B113
:10583800938707059CC1B707E803DCC1238B01BC2C
:1058480037E60600938781A01306C644D0C337E61F
:1058580006000947138ED1B0130606422300EE0056
:10586800D0C723AEE70123AEC70337E6060037EFFC
:10587800060037EE0600854613060643938811B1E5
:10588800138341BD1388F1B01385E1B0130F8F4323
:10589800130E8E422380E8002380E7002388E70068
:1058A8002380E7022388E7022380E7042300E80037
:1058B8002384D70023950700D0CB238CD700239DC2
:1058C800070023A2E7032384D7022395070223A610
:1058D800D703D0DB238CD702239D070223A2C70559
:1058E8002384D70423950704231003002300D5003D
:1058F80023A667042388E70423AE17052380E70659
:105908002388E7062380E708B7E8060037E706009C
:105918001307C7429388884423A2E708F0CB238C57
:10592800D704239D070423A217072384D7062395AA
:105938000706ECD7F0DB238CD706239D070623AE9A
:1059480007072384D7082395070823A6A7083757EE
:105958000500938781A91307C75698C337570500D1
:105968001307E76BD8C323A407008280A54763E128
:10597800A70CB7E70600938707F80A053E951C4170
:10598800411122C426C206C64AC0B2842E84828728
:10599800D547614563E1B70259468145138501DF63
:1059A800EFB00FED2286A685138501DF97E0FA1F79
:1059B800E78060FB0145B24022449244024941011C
:1059C800828089476145E398F5FE03570600239ACC
:1059D800E1BCCDB7A1476145E39FF5FC2146A6850B
:1059E800138541B1EF80E14CF1B785476145E394F8
:1059F800F5FC938581A0D04D9385850203C50400ED
:105A0800EFF0DFAF45BF85476145E396F5FA93852B
:105A180081A0D05D93858504D5B785476145E39C12
:105A2800F5F8034706002387E1B069B7094561B770
:105A3800094582800547630AE5024111AA8706C61F
:105A48002E8599CB11476388E7022547638BE702C8
:105A58000945B240410182805546938501DF97E0B0
:105A6800FA1FE78040F00145EDB783D741BD0145F6
:105A78002390F50082802146938541B1EF806143F0
:105A8800DDB783C7E1B02380F500F1BF938761BD1F
:105A980003C7070011EF05472380E700058909C9F7
:105AA800938681A94146A545138581A06F30405E44
:105AB8000145828001111388F5FF06CE22CC26CA43
:105AC8004AC84EC652C41378F80FAD4563ED050BAE
