:020000025000AC
:100000006FD0516C00000000001801180028012872
:100010000228032800290129022903290429052986
:10002000062907290829002A012A022A032A042A64
:10003000052AA62A3CE50600EE0E0500DA100500AA
:100040001A1105008A100500781005007A39002081
:100050003E110500221205004A120500A4130500F6
:100060003C140500FE0D05002E0D0500980D050041
:100070005A0D050020180500B6390020381105007A
:10008000981505008EAA060048AC0600BAAC06001A
:10009000DA680600EA6806001403060068F6050040
:1000A000C4A00600C6150500206F06006CB305004D
:1000B000F2B305004AB4050062200500AE20050039
:1000C000241F0500767205004C6D05008E7B05002F
:1000D0005A7F050002830500905F05002E5F050032
:1000E0000C630500DC5F0500045F0500885F050008
:1000F000B65E050058600500B06005006060050050
:100100006460050000610500B8600500EA60050054
:10011000046605000C660500546005005C6005007F
:10012000FC60050008660500A86105007A67050007
:10013000F29005006C9105009A9105008A74050003
:10014000A2740500DE740500725905003A5A0500D4
:10015000925A0500583C0500CE3705002253050091
:10016000403805007652050068C50600F0C206005A
:10017000FECB0600E0D9060014D906005EDC0600BE
:100180005ADC06002AB60600F2DC06009CB3060024
:1001900082DC060082D206009CD20600C0D2060095
:1001A00062DD06004CD70600E2D60600D2DD06006E
:1001B000AAB5060032B6060056B60600F8B5060027
:1001C0003886060020750600547B0600007606007F
:1001D0004A80060064A106005AA00600CCB30600BF
:1001E000A2190500C2690600046F0600D66F06005A
:1001F000289C0600629C0600DA9C06006A780500CE
:10020000F8850600C28006005A780600EE820600D5
:10021000DC740600B0140500386B060098880600F0
:10022000FE8A06005E8B0600AC8906007613050088
:10023000D875050012F605003CCC06000000000051
:100240006373B60082801C419105110523AEF5FE53
:10025000C5BF938781B5138741006373F700828020
:0802600023A007009107D5BFA0
:1002680049C5AA870145C1C58D07C207C183F19B4E
:10027800C207C183130740036366F70203A501B6EB
:1002880083A681B56393A60203A781D5014525C33B
:100298004111C20706C60545DD8D0297B2400145EA
:1002A8004101828003A5C1B5E1BF0357650005EF91
:1002B800035745006369F702B306F74021466370A8
:1002C800D6021041938687001D8FAA96611790C2A7
:1002D8002392E6002393060014C12312F50023138A
:1002E800B50021058280084171BF01458280828066
:1002F80009C903A801B683A581B50147C28763E38D
:10030800B70082809443636DF50663EBA6061386F7
:100318008700E368C5FE03D56700216605066317F5
:10032800C50003C681C205062384C1C22393070002
:100338006383070303A6C1B5630FF600035667007E
:1003480019EA83D7470014C383564700B697A10715
:100358002312F700BA879843E305B7FA83A6C1B515
:10036800E301D7FA83566700C9FE83D647000356D0
:1003780047001843A106B2962392D70098C38280FB
:100388003E87B687ADBF09CDB71700401307700584
:100398002380E704130780FA2380E7042396A70243
:1003A800828019C1814799E982803387F5008346A5
:1003B80007003307F50085072300D700E397C7FE3A
:1003C800E5B719C1FD5781E98280910503A7C5FFEB
:1003D8001105232EE5FE7D16E319F6FEF5B77971B2
:1003E80026D283A781D806D622D44AD04ECE52CC64
:1003F80056CA938481D881C7829723A00400DC4021
:1004080089CB03D5C1B64137DC40829703D5E1B625
:100418009D3F9C40639C07149387C1F483C7570092
:100428001389C1F4858B85C303477900A3020900AA
:10043800914763FAE700052B83477900F9178A0784
:10044800A6979C43829783C7C1F9918B89C7974028
:1004580006E0E78040909C4491C38297938641D6FA
:1004680003A781B603C61600138A81B6138441D642
:100478008347040093961700BA9683D60600638FC5
:10048800060C8347040063FBC70686073E9783551F
:1004980007002310070003D5C1B6938941B72EC6BC
:1004A80023900900CD350345040083A701B813172D
:1004B8002500B245BA979C438297AA8A03D5E1B62C
:1004C800D9358347040003D50900139717008327FC
:1004D8000A001345F5FF33755501BA9703D707008E
:1004E800598D2390A700834704000347140085070C
:1004F80093F7F70F2300F40063E4E70023000400F8
:100508009C40ADE703A781B7938481B725C3834790
:10051800B90081CB8347790089E7973006E0E78007
:10052800A01A9C408297AA8431C11C48AA971CC86B
:1005380083A7C1B785CF03D5C1B6B135268597D076
:1005480004E0E780C0642254B25092540259F24940
:10055800624AD24A03D5E1B6456135B5850793F7B6
:10056800F70F2300F400E3E5C7F021BFB25022548F
:1005780092540259F249624AD24A4561828091678F
:10058800B7C600409387373023A6F6200F10000027
:10059800938741D6884F83A741C8316713073730FF
:1005A800F053B7071000FD17918F99833A0523A6DA
:1005B800E6205D8D82804111B7170040985F3AC6EA
:1005C800945F3247E39CE6FE324541018280411147
:1005D80006C6D53703C6C1D3058A15CA9307303373
:1005E8003307F502B337F5023983CA07938541D635
:1005F800D98FD849938641D601456307F7006370C0
:10060800F7023385E740DCC9B24041018280E54703
:100618003307F502B337F5022583DE07C1BF376517
:100628003D0809C637856F0813050590198D3E9555
:10063800DCCAD9BF0327C50F8346B50083A741F697
:1006480058439386160295829043FD1693F6F60F4B
:1006580010C3D04350C3904710C7D04750C7904BE2
:1006680010CBD04B50CB904F10CFD04F50CF91C61E
:100678001307070293870702C1BF82808347E501FA
:1006880093F7E70FE1EB2A870345F50161E5034698
:1006980007018346870019C68345A70283C7D1D3BC
:1006A80063E7F50093F70601C5CB814709CA83477D
:1006B80007150346F714C18AA207D18F81CA83465A
:1006C8003715034747152207558FBA97D1C703A790
:1006D80081EE411122C406C67D548326070863F3C0
:1006E80086003684184375FB938681D283C64601FB
:1006F800138781D213968601618663560602938713
:10070800C71395830347E701BA97635F06021D8CF9
:1007180083A741B882973335A400B24022441345D9
:10072800150041018280858A9387C71289CA8A0782
:100738009387F7031305D007B3D7A702E1B7860756
:10074800FD071305D003CDBFE373F4FC3705C0A83C
:100758002A9475BF0145828082805D7126DC3AD279
:1007680003A741C73ED04EC81C5F86C696C499836E
:100778009AC29EC022DE2ADA2ED832D636D442CE8B
:1007880046CC4ACA72C676C47AC27EC0858B938428
:1007980041C7B9CF1C5F1384C1F493F7F7F91CDF85
:1007A80083C7C1F493F7070499CB83A741B882970D
:1007B80008C883C7C1F493F7F70B2386F1F485477C
:1007C800A302F4008347440093F7070489EB83A747
:1007D80041C85844B8D3930700FC2302F4008307A8
:1007E800640063D7070083A701C79C432303F40071
:1007F80098401C5F8583858BC1CBF5571CDF0100B2
:1008080001000100010001000100010001000100D8
:1008180001000100010001000100010001000100C8
:1008280001000100010001000100010001000100B8
:1008380001000100010001000100010001000100A8
:100848000100010001000100010001000100010098
:100858000100010001000100010001000100010088
:100868000100010001000100010001000100010078
:10087800010001000100010001000100010083A73F
:1008880041C813075004B8CB98401C5F9183858BEF
:1008980081CFBD571CDF83A741C8054723A807049C
:1008A8009387C1F42382E70083A701C7D843058350
:1008B800058B19C7D843759BD8C3D843799BD8C330
:1008C8007254B640A64216438643E2545255C25566
:1008D8003256A256125782577248E2485249C249C4
:1008E800324EA24E124F824F61617300203083A6B0
:1008F80041C89387C1F4B85219CB03C72700058BA9
:1009080019E703C73700058B7DD72382070082804C
:1009180083A701C899CB944BD04B9842518F98C26A
:1009280094439C479842D98F9CC283A741C8B7C6B5
:100938000040A8CB9305C003130620031387C1F416
:1009480083A78620C18393F7F70363E9F50083A79C
:100958008620C18393F7F7036366F6008347470051
:10096800858BF9DF828083A641C89387C1F4B8528A
:1009780019C703C70700058B11C723820700A38285
:100988000700828003C71700058B75D3FDB783A7BF
:1009980001C899CB944BD04B9842518F98C294433D
:1009A8009C479842D98F9CC283A641C837C700404C
:1009B800C145A8CA654683278720C18393F7F703F3
:1009C80063FBF50083278720C18393F7F7036364EC
:1009D800F600BC52EDF3828003A741C7AA87185FCF
:1009E8001583058B25EF0345150015051377C51FDE
:1009F80019C6B386E70083C626002300D60085C53E
:100A080083C621F5094593F60604B1CAB386E70003
:100A180083C63600054693F5F6066392C504E206DA
:100A2800E18663CE06023385E70083471500034756
:100A38000500A20793F70770D98F93960701C18223
:100A480013F606401387C1C719C693E6068023101C
:100A5800D700014582802310F700E5BF0545828055
:100A680001113EC42ECC83A541C836C83AC6944568
:100A78002ACE32CA1397060142C246C0418393F870
:100A88001620138841C83A869387C1F4638F0802F9
:100A980093F60620DDCE83C62700B708001093E63C
:100AA80016002381D70093060019B4D1930600F8E5
:100AB8002382D70083A541C7D455F19A93E626002F
:100AC800D4D59441B3E6160194C19376261081CE0D
:100AD8001376061051CA83C6C1F493E6160023861E
:100AE800D1F42394070003C647001347F7FF4207D2
:100AF80062066186418383260800635F0600131639
:100B08001701635A0606AC520D466367B6000546E0
:100B18002382C700BC52FDFF8387C1D363DD070072
:100B280093170701C18763DC0704F052894763E420
:100B3800C700FC52FDFF9C467245E2457D8F98C672
:100B48005246C2463247A24712488248056173009E
:100B5800203083C617002394070093E61600A3806D
:100B6800D7002382070095B783C6370093E616009F
:100B7800A381D700BDB705462382C70071BFDC46F5
:100B880013960701635C0600B7071000FD17FCD237
:100B9800938741D6904F050690CF71BFA1675D8FAF
:100BA80059BF938781F8138681F60346B60183C738
:100BB8005701938681F8138781F6B29793F7F70F59
:100BC8007D466361F604A300F70083471700484B8E
:100BD80005463316F600A38AF600698E05EE03C6AD
:100BE800960113080002814633F6C7028147B355C0
:100BF800F500858993F8F70F99C96317D600A30004
:100C0800170182808117C1B7850693F6F60F85070D
:100C1800E39F07FD828003A701C9B75702009387A6
:100C2800279F8326070913965600635806008326D4
:100C380007091396660063440600FD17FDF38280DA
:100C480083A581D2938781D21386052223A0C1B6BA
:100C580003D74700938785FFBA97056523ACF1B49E
:100C68001D05930600206364E5009356370033079B
:100C7800D60023AEE1B423A0E522E1162312D60064
:100C8800231306001CC3998FE1172312F7002313BF
:100C98000700828083A701B603A781B501456313C6
:100CA800F700828083D6670081E683D647003695B1
:100CB8009C43F5B783A701B683A681B50145639325
:100CC800F600828003D7670011E703D747006373F4
:100CD800E5003A859C43E5B783A701B603A681B52D
:100CE8002A87B305B5406314F6003A8529A8938688
:100CF80087009C43E369D7FEE377F7FE2E85E3E49C
:100D0800D5FEE3F2F5FE828023AC05FE1C4191E797
:100D1800010001000CC18280BA8703A787FF6DFF1D
:100D280023ACB7FE82801DC18346E5FF1307F00F91
:100D38009147639EE600411106C69730FB1FE78086
:100D480060B8B24081473E854101828095473E8523
:100D5800828001E9014582800145B2402244410177
:100D68008280411122C42A84210542059305D004BA
:100D7800418106C69730FB1FE780C0AB71DDFD5788
:100D880023200500231285002303F5002105F1B770
:100D9800411126C222C44AC083A741B606C60144EF
:100DA8000149938441B689E7A165CD2B05C401A803
:100DB80003C7E7FF6317A70215C8A165AD2E9840C2
:100DC800832784FF6316E4029CC0FD57232C04FE8E
:100DD800230FF4FE2285B240224492440249410185
:100DE800828011E03E8983A787FF75BF3E84E5BFF7
:100DF800232CF9FED9BFB9C583C751D6411122C4E6
:100E080006C62A842E856368F400313F0D45B2403A
:100E180022444101828083A785FF99E703C7E5FF44
:100E28009307F00F6305F700FD3D1545CDB7238FF8
:100E380085FE138541B6C93D22852244B240A1658D
:100E48004101D5AC1545828023A201B6828083A7D3
:100E5800C1B799E33E85828003D727006316B700A0
:100E680003C70700E308A7FEDC47E5B741119397DE
:100E780005014AC006C622C426C2C1872E8963DE80
:100E88000700393711C1453521653345A900B240FE
:100E980022449244024941018280AA860145E5D94B
:100EA80001443D47B3578940858B8DCB83A401B757
:100EB800BD4791E28147A2978E070545BE94331539
:100EC8008500131405019C40C8404180829723A0E7
:100ED800040023A204003345240155BF0504E3138D
:100EE800E4FC0144CDBF83A781D4411122C406C6C6
:100EF800138481B185C7829708C00840B7470300AB
:100F08009387D73F3305F502B7A72600938737ECB9
:100F1800B2403E9508C0224441018280184083A710
:100F280041D7BA971CC0D1BF011122CC938741D6B3
:100F380006CE26CA4AC883C6170003A681B61384FC
:100F480041D6814713F7F70F6362D7089387C1F437
:100F580003C7770091471389C1F463E0E70883C7A3
:100F6800C1F9918BBDEB6800EFF08028FD56630056
:100F7800D50C938781D283C737013247938481D2B6
:100F880063FDE704404403C744016304D406058BAA
:100F980039CB51473304E40263F187049730FB1FD0
:100FA800E780A0BEB2476373F400A28703C7340189
:100FB800998F3E958387440163C20704B707C0A889
:100FC800636EF502B70740573E950DA8850713973E
:100FD800170032970357E7FF35D7F2406244D244EF
:100FE800424905618280130790023304E4020580B8
:100FF80065B762076187635707001D8D19E93705D3
:10100800C0A801A8E37BF5FE3707C0A8B307F740DF
:101018003E9583A7C1D4829769F183278901D5DFDB
:10102800EF501126EF60810CEF50111A7DB75C4428
:10103800E385A7FA138781D203474701938481D2B6
:10104800058B0DC351443384870283C73401E3F60B
:1010580087F89730FB1FE78040B383C734011D8CA6
:10106800229589BF13049002338487020580F1BF5B
:101078002A9609E582800505A30FB5FEE31DC5FE86
:10108800D5BF81473307F5000307070019E33E85FD
:1010980082808507C5BF01112E8626CAAA8413152A
:1010A80006019305F004418122CC06CE32C6972072
:1010B800FB1FE78020782A8419C53246A685973019
:1010C800FB1FE780408B2285F2406244D2440561D1
:1010D800828081476314F600054582803307F50056
:1010E8008507B386F5000347070083C6F6FFE38349
:1010F800E6FE014582809307F6FFBE952A966313A4
:10110800C5008280FD1583C715000505A30FF5FEF0
:10111800FDB7814711E9014582803307F500034790
:101128000700E31AB7FE8507E319F6FE0545828036
:1011380003A541D7828083C751D6637EF5009317F4
:10114800150003A581B63E9583570500DD8D231054
:10115800B500014582800D458280011126CA93871A
:1011680041D622CC4AC84EC652C456C206CE5AC030
:101178007D57D8C703A4C1B72A8A8149938441D629
:10118800938AC1B7138981D2184481476374EA00EE
:10119800B3074741032749021CC409C7D84463F36E
:1011A800E700DCC4A9E78355240085ED5C44639916
:1011B800090423A0FA00032BC40022859720FB1FF3
:1011C800E78040705A8469F0832749028DCF6244D2
:1011D800F240D2444249B249224A924A024B05613E
:1011E800A1B303450400813F5C4081CB1CC48357F5
:1011F8002400CDDFA2894044F9B71C44C5DBC5BF34
:1012080023A6F9004DBFF2406244D2444249B24994
:10121800224A924A024B0561828083C751D6637085
:10122800F5029317150003A581B693C5F5FF3E9502
:1012380083570500FD8D2310B500014582800D45BB
:10124800828083C751D66364F500014582804111CD
:1012580022C426C24AC006C62A842E89B284C53E44
:1012680001C504C5054515A0936504F0C205C181F3
:1012780041459720FB1FE780E05B11ED83A781D5EF
:1012880081C7A285114582970145B2402244924404
:101298000249410182801387C1B71C4385E308C313
:1012A80085472326050004C5231125012300850051
:1012B800A300F5002322050075B7BA87D84775FF44
:1012C800C8C7F9BF5DC1397122DC26DA4AD84ED6C3
:1012D80052D45AD05ECE66CA6AC806DE56D262CCEE
:1012E8006EC63689328AAE89AA840144394D854B47
:1012F800F94C03A701B7131C3400937AF40F6297D3
:101308001C43938D01B7A9EF13B5FA0013451500D7
:10131800B3978B0063765D01930714FFB397FB00C7
:1013280093950701C1815286293F1DC983A70D00E6
:101338000145E29784C323A237016304090023000F
:101348005901F2506254D2544259B259225A925A0F
:10135800025BF24B624CD24C424DB24D216182800D
:101368000504E31894F92145E9BF09458280411134
:1013780022C426C24AC006C6AA842E893284D13520
:10138800CA852685E93409C940C10145B2402244CD
:1013980092440249410182802145CDBF411122C4B6
:1013A80026C24AC006C6AA842E8955342A8419C181
:1013B8002311050083C741D663949700239A21B768
:1013C800CA852685993D014511E01945B240224458
:1013D80092440249410182807547636BA70483A642
:1013E80001B7411126C293143500A696944222C42F
:1013F80006C6AA87138401B7094595C613B5F70031
:101408003947134515006373F700C5178545B3952C
:10141800F500C205C18159371C400145A69723A094
:10142800070023A20700B24022449244410182806F
:1014380009458280411106C6193C09C50845B240D4
:10144800410182800145E5BFF54763ECA70483A706
:1014580001B713173500BA979843894721C7011177
:1014680026CA06CE9334F50022CCB94793C414009B
:1014780063F3A700451505443314A40042044180D2
:101488002EC62685A2857D378947324609C5A2859D
:101498002685453B8147F2406244D2443E8505613A
:1014A800828089473E8582802396A1B62397B1B66C
:1014B8008280411106C623ACA1B60295B24023AC86
:1014C800A1D6014541018280994763E8B700939707
:1014D8002500938581D8BE9588C18280411106C6B2
:1014E80022C426C2EFF0CFF571468145138581D815
:1014F8004136138441D6130640028145138541D6EF
:10150800853E23AE01B623AC01B683C741D493050B
:10151800101013D527008D8B3E958D473305F502A6
:101528009947938401B835051375F50F2301A40075
:101538003305F5021305050F9720FB1FE780802F61
:1015480023A8A1B6834724001305050F88C08A077E
:101558003E9523A4A1B6EFF03F8F212E83471400B8
:101568009840B7160500139627003A96938646E7E3
:1015780014C213862700850793F7F70FA300C4004A
:10158800B24022448A07BA9794C3924441018280A8
:10159800138741D6834717008346270063FED70089
:1015A80083A601B813861700A300C7001397270066
:1015B800369708C33E8582809307F00FE5BF1C412C
:1015C800638E071241777D8FB7060020894763181D
:1015D800D7120357450063040712411126C2194662
:1015E800AA849305F00F590506C622C44AC01536C9
:1015F80005478D47630DE50E938781D29C47138479
:1016080081D291C7585899477DE3185C6DE313065A
:10161800C0038145138581D2A13C1306C003A6856A
:10162800138581D29720FB1FE780E0348357C400DD
:1016380089E7930700102316F4008347E40081E745
:1016480085472307F4008347F40081E7ED47A307A4
:10165800F4008347040181E795472308F400834792
:10166800140181E78547A308F4008347540189E7FB
:1016780083470401A30AF4008347240181E7D14783
:101688002309F4008347E40195E3034744019307E2
:10169800C00293168701E18663C806009377170096
:1016A80093B717009387D702230FF40083473401B9
:1016B80095E3034744019307C00293168701E18627
:1016C80063C806009377170093B717009387D7026C
:1016D800A309F40083C7D40181E78947A30EF40066
:1016E8001C5481C782972395A1D6CD3B8147B24030
:1016F8002244924402493E854101828089473E85C1
:101708008280011122CC06CE2A842EC6EFF0AFFDCE
:10171800B245F240818D33A5A50222956244137526
:10172800F50F05618280011122CC06CE2A842EC6CF
:10173800EFF06FFBB245F240818D33A5A5022295EB
:1017480062444205418105618280011122CC06CEA6
:101758002A842EC6EFF02FF9B245F240818D33B5B9
:10176800A5022295624405618280138781D21857A9
:10177800011122CC06CE26CA4AC84EC61384C1F42B
:1017880031CF138981D20297138741D60357670057
:10179800AA84938941D62DCFBA876373A700AA87F5
:1017A800C207C183BA8663F3E400A686C206C18273
:1017B800958F5147635EF7048327C90291C38297C7
:1017C80085472304F400EF50910023939900F240D9
:1017D8006244D2444249B249056182808347840009
:1017E8008DE783479400850793F7F70FA304F40068
:1017F800A18BF1DF85472314F4006244F240D24400
:101808004249B24905616F501102A3040400F5B7BB
:1018180083478400CDDFD5B7138781D2585701118C
:1018280022CC06CE138481D201C72AC6029732453C
:10183800938741B801CD88C337450020130565BAA1
:101848008D39F240624401450561828003074401F5
:10185800635C0700138741D6232C07003747002015
:10186800130767B598C3C9BF374700201307E7B800
:10187800D5BF011122CC938781D2884706CE26CACC
:101888004AC801E90545F2406244D244424905612B
:101898008280138481D25C58F5D7185C65D77000B4
:1018A800854582971844B247E30EF7FC0355C400F8
:1018B8009305E0049720FB1FE780C0F7138741D604
:1018C80048CF938441D65DDD0356C4009305F00FDD
:1018D8000149EFF0EFF98347E400D04C634DF9007C
:1018E80032859720FB1FE780E0FD014523AE040009
:1018F80023A0040249BF8355C4000844185CB38779
:101908002503898105093E9508C20297E9B7411167
:1019180022C4938781D29C4726C206C64AC09384B4
:1019280041D691EBC84C2DE1B24022449244024981
:10193800014541018280138481D21C5CE5D7DC4CCF
:1019480091EB0355C4009305E0049720FB1FE78043
:1019580060EEC8CCC84C79D50356C4009305F00F87
:101968000149EFF0EFF08347E400D04CE35CF9FA6B
:101978008355C4001C4433852503898105093E9598
:101988001C5C08C28297C5B79720FB1FE78080F3CD
:1019980023AE040023A0040241BF01114EC6938761
:1019A80081D29C4726CA4AC852C406CE22CC56C207
:1019B8005AC02A8AAE8432896388071E938981D2E5
:1019C80003A74903630007127D47636FA7101387B6
:1019D80041D6832AC701138441D6639A0A0803D5DE
:1019E800C9009565938515E09720FB1FE78080E483
:1019F80048CC2A8665C983D5C90083A7490303A5AE
:101A080089008981829783A78900832AC4011CD011
:101A180089476316FA08C1476396F40C83D5C90051
:101A28009147938505FCB3C5F5028A05D69503C78A
:101A380005009307A0056313F70A83C71500639F82
:101A480047094A85268691059720FB1FE780A0F263
:101A58005C4C5685639157130145F2406244D24469
:101A68004249B249224A924A024B05618280185083
:101A7800E380E7FA03D5C9009565938525E09720AB
:101A8800FB1FE78020DBAA8A31CD83D5C9002A86CF
:101A980083A7490303A589008981829795BF8D474C
:101AA800631BFA00C147639FF40283D5C90093857D
:101AB80045FDF199A5BF91476318FA006394440363
:101AC80083D5C900A115F5B7C147631DFA00A14721
:101AD80063EA970083D5C900C115E1BF5C4C568500
:101AE800639F570B294595BF1307F006636AA7083C
:101AF800930A05FE1947B3CAEA0203D7C900B38A95
:101B0800EA02BE9A938741D69C53138B41D66395BC
:101B180057010324CB011DE003D5C9009305E00458
:101B28009720FB1FE78000D12A844DDD83D5C900AB
:101B380083A749032A868981568582979145130789
:101B4800A005898193972500A29783C60700639310
:101B5800E60483C61700639C460385058A05268626
:101B6800A2954A859720FB1FE780E0E08327CB01F9
:101B7800E38487EE22859720FB1FE780A0D4E9BD88
:101B88001307E007E360A7F6930A05F9BDB783D505
:101B9800270045BF8327CB01E38687F4228597205A
:101BA800FB1FE78020D23DBF83A501D885DD914783
:101BB8009306A0058983139727002E9703460700ED
:101BC800E312D6F203461700631C460185078A070D
:101BD8002686BE954A859720FB1FE780C0D9ADBDF4
:101BE80083572700C1BF938781D298471DCF985F3D
:101BF8000DCF8546631BD502411122C4138441D6FB
:101C0800504C06C619CE83D5C70008508981029763
:101C1800484C9720FB1FE780E0CA232E04002320AE
:101C28000402B2402244410182808280011122CC08
:101C3800938781D256C283AA870026CA4AC84EC64D
:101C480006CE52C42A89AE84B289138481D26387AE
:101C58000A1C1C5C99EB2945F2406244D244424973
:101C6800B249224A924A056182805C58EDD7FD4705
:101C780063E5A70C938741D6DC4F138A41D6B9C7D1
:101C8800084483270A02639FA70489476317F90654
:101C9800C147E392F4FC0355C4009147130505FCC2
:101CA8003345F502931725000325CA012686CE85FC
:101CB8003E959307A0052300F500A3002501110513
:101CC8009720FB1FE78020CB014579B70355C40057
:101CD8009305E0049720FB1FE780C0B5232EAA00D8
:101CE80045F195BF8355C4005C580326CA01898114
:101CF80082971C442320FA0249BF8D47631CF900D0
:101D0800C147E39AF4F40355C400130545FD9377DE
:101D1800C5FF59BF91476318F900E39E24F30355A3
:101D2800C4002115EDB7C147E317F9F2A147E3E471
:101D380097F20355C4004115D9BF9307F00663E72E
:101D4800A706930705FE1947B3C7E7020357C40060
:101D5800B387E702BE9A938741D6DC4F138A41D6F0
:101D6800A9CF83270A02639657070325CA0191461C
:101D78001308A005FD5593D72600C207C183139702
:101D880027002A97034607006314060783481700AD
:101D980003562700639C2805B306D64063C69604FD
:101DA80085078A072686CE853E9519BF9307E007E3
:101DB800E3E3A7EA930705F951BF0355C400930568
:101DC800E0049720FB1FE780E0A6232EAA0051F924
:101DD80059B58355C4005C580326CA0189815685C4
:101DE800829723205A0351B7A300B700B28661B780
:101DF8000356C400B38596009105130606FCE3FC60
:101E0800C5E4138634001376C60F1106B296230074
:101E18000701A30027012311D70059B7938741D69B
:101E2800DC4F138A41D6A1C30325CA019146130882
:101E3800A005FD5593D72600C207C1831397270035
:101E48002A970346070063120605834817000356BE
:101E5800270063982801B306D640E3D396F4A3007D
:101E6800B700B286C1BF0345E4008357C400930599
:101E7800E0043305F502420541819720FB1FE78006
:101E8800609B232EAA004DF1F9B30356C400834585
:101E9800E400B385C502338696001106E3EDC5DA82
:101EA8008DB70145828083C705002300F50083D7DD
:101EB8002500A300F50083D72500A1832301F500A1
:101EC80083C74500A301F5001145828023A601B808
:101ED80023A401B8828029C1411126C206C622C4A2
:101EE800AA8401458DC52E84B7E5060022854146A2
:101EF800938545389720FB1FE780E0A783C7040038
:101F080005452306F40083C71400A306F400B24075
:101F1800224492444101828001458280011122CCF1
:101F280026CA06CE0947AA8432846381E50441465D
:101F38008147639BC500638FE6006397B6000DA8D1
:101F480041478147638EE600F2406244D2443E85B1
:101F5800056182808A852285BD3F41468A8519A808
:101F68008A85953F41468A85228531A0E39AB6FC49
:101F78002E86A2852685EFF0CF95AA87F1B723A4F0
:101F8800A1B8828023A6A1B88280011122CC035473
:101F9800650006CE26CA4AC84EC641C083298500B8
:101FA800AE842A8803C9090081471317890161870C
:101FB80063550702B147054563FA87045114420483
:101FC80003552800418033878900A2864E868545BF
:101FD800EFB0F040B337A00085077D1413556900B2
:101FE800420405891379F90341802380F400A38012
:101FF800A4002381240123928400014719C0138778
:10200800190098C409476383E7000145F240624418
:10201800D2444249B249056182800545C5BFC167BE
:10202800F917630AF502D94763F7B702011122CC01
:102038002EC606CE2A84EF703030B2456368B500EC
:1020480022856244F24005616F90203DF24062446F
:1020580005450561828005458280C167F9176314CB
:10206800F5006F70702D411106C6EF90002B11E13D
:102078005D45B2404101828091476394F5028347F0
:1020880005002300F6008347250003471500A20733
:10209800D98F2311F6008347350001452302F60046
:1020A8008280114582804111814522C426C206C61C
:1020B800AA84392D2A8419E583A781B881C7F945EF
:1020C800268582972285B24022449244410182802B
:1020D80039714ED656D25AD006DE22DC26DA4AD8D4
:1020E80052D4AA8A2E8BB28941EF36C6BD379145A4
:1020F800EF70D034AA844D492DC9B246054A2380D1
:1021080034010544630A0B00B68513851400029B4D
:102118000505131405014180E20993D9894163D368
:102128000902C1455685EF90402C654905E933867B
:102138008400A2852685EFB0006F2A8905E1310465
:102148004204418091472C085685231CF10026CE75
:10215800231D8100EF80D0392A8901C963070A004D
:1021680026859710FB1FE780E075F25062544A8578
:10217800D2544259B259225A925A025B2161828042
:10218800BA84014AADBF011122CC26CA4AC84EC63C
:1021980006CE2A893284B689253FAA8419ED83A7F9
:1021A800C1B881CF05476317E40003C409000504DB
:1021B8001374F40FA2854A858297F24062442685FB
:1021C8004249D244B24905618280AE86B7250500EE
:1021D800014705469385E5EA7DB783D705002300C7
:1021E800F50083D70500A183A300F5000945828087
:1021F80083D705002300F50083D70500A183A3003A
:10220800F50083D725002301F50083D72500A18396
:10221800A301F5001145828083D705002300F5004E
:1022280083D70500A183A300F50083D725002301E8
:10223800F50083D72500A183A301F50083C75500C6
:102248002302F50083C76500A302F50003D58500C6
:10225800190542054181828083D705002300F500D6
:1022680083D70500A183A300F5000945828083D7A1
:1022780005002300F50083D70500A183A300F5001E
:1022880083D725002301F50083D72500A183A30167
:10229800F5001145828003D54500060542054181B8
:1022A800828083D705002300F50083D70500A1832A
:1022B800A300F50003D52500090542054181828068
:1022C80083D705002300F50083D70500A183A30069
:1022D800F50083D725002301F50083D72500A183C6
:1022E800A301F50003D5450011054205418182800F
:1022F80083C705002300F5000545828083D70500C4
:10230800411122C406C62300F50083D705002E8498
:102318001105A183A30EF5FE83D725009505230F8C
:10232800F5FE83D7D5FFA183A30FF5FE03C6F5FFFE
:102338009710FB1FE780206403454400B240224405
:102348001105410182808947639CF5008347150088
:10235800034705000145A207D98F2310F6008280A4
:102368001145828003D70500D94763FEE7020111B2
:1023780022CC06CE2EC62A84EF70007CB24683D7C4
:102388000600636DF50022856244F240B72505001A
:10239800014709469385251E05611DBBF24062442D
:1023A8000945056182800945828091479DC583461C
:1023B8000500FD15C2058547C1816392F60213D752
:1023C80025008D89914791E9914701CB05052301A6
:1023D800D6002310E60048C281473E85828009471F
:1023E8009147E39CE6FEC94733D7F502B3F5F502FA
:1023F800D1BFAE86B7250500014711469385851FD5
:10240800C1B993F7350091EB8981914789C52310AC
:10241800B60048C281473E8582809147EDBF03C719
:1024280045008947631AF702011122CC2A84C8455E
:1024380006CEAE86014719C52EC69D45EFE0DF8959
:10244800B2462A8722856244F240B725050019461C
:10245800938505220561ADB90945828099E1114549
:1024680082808347050005472311F600E379F7FECC
:10247800FD1593F5F50F33D7F502B387E702E3901F
:10248800F5FE050548C22310E6000145828083C792
:1024980045000947AE866385E70041476399E70031
:1024A800B7250500014721469385453015B10945F3
:1024B80082802310B60091E1014548C2014582801F
:1024C800AE86B7250500014729469385052609B13B
:1024D8002310B60091E1014548C201458280AE86CD
:1024E800B72505000147314693856527D5B62310E2
:1024F800B60091E1014548C20145828003D74500F5
:10250800854763FDE702011122CC2A84884106CE63
:102518000DC12EC68545EFE02FFC2A87228562442F
:10252800B246F240B725050039469385E52905618D
:1025380045B6F240624409450561828009458280BA
:1025480091479DC5034705008D46914763F2E60212
:10255800FD15C205C181B3C6E5023308D7026399E8
:10256800050105052310D6002311E60048C281475E
:102578003E85828083C745000947AE866385E700AC
:1025880041476399E700B725050001474146938510
:1025980045303DBE09458280B335B000139525000E
:1025A8008280011122CC26CA06CE03C78500854742
:1025B800AA842E8449466311F702EFF01FAA8357B5
:1025C800240049151306200963C8A700F240624495
:1025D800D244094505618280034794008547631406
:1025E800F70013660604484011C58D4532C6EFE072
:1025F800AFEE3246A2866244F2402A872685D2444C
:10260800B72505009385A52A0561D9B48D4763FFD1
:10261800B7028347150003470500F115A207D98FB4
:102628002310F6008347350003472500C205A2079B
:10263800C181D98F2311F6002312B60089C511056F
:1026480008C60145828023240600E5BF1145828023
:10265800011122CC2A84884506CEAE8611C52EC625
:102668009545EFE06FE7B2462A8722856244F2403B
:10267800B725050059469385852C05616FF05FA540
:10268800B335B000139525008280AE86B7250500C6
:10269800014761469385852F6FF09FA385471145B4
:1026A80063F4D7028347160083450600A207CD8F3F
:1026B8002310F7009387E6FF2311F7008947638605
:1026C800F600090650C30145828023220700E5BFB2
:1026D80001478146794681456FF09F9F83D7050062
:1026E8002300F50083D70500A183A300F500094561
:1026F800828083C7250005472300F50003D5050020
:102708006397E7000A050505420541818280C947AC
:102718003305F502CDBF03D505000A054205418101
:10272800828083D725002300F50003D5050083D7D1
:1027380025003305F502050542054181828003D550
:102748000500828003D50500828003D505008280BC
:1027580083D725002300F50003D5050083D725007E
:102768003305F502050542054181828083D70500BE
:102778002300F50083D70500A183A300F50083D7C4
:1027880025002301F50083D72500A183A301F500C7
:1027980003D54500110542054181828083D7050094
:1027A8002300F50083D70500A183A300F50003D516
:1027B8002500090542054181828089471145639BAF
:1027C800F60083471600834606000145A207D58F09
:1027D8002310F700828003D70500D947AE8663FA35
:1027E800E700B725050001470D469385456E6FF054
:1027F8009F990945828011456393A6028347160075
:10280800834606000145A207D58F2310F7008347AA
:10281800360083462600A207D58F2311F700828051
:1028280083C725000547FD1793F7F70F6361F70482
:1028380083D705008DCF011122CC2A84C84106CE4A
:1028480015C12EC68945EFE02FC92A872285624423
:10285800B246F240B725050015469385A56F056178
:102868006FF07F92F2406244094505618280094514
:1028780082809547114563F9D706411122C426C2C3
:102888004AC006C683471600BA8403470600A20753
:102898003284D98F2390F4008347360003472600FB
:1028A80093054400A207D98F2391F4008947238216
:1028B800F40009461385540036899710FB1FE780FA
:1028C800800B9307A9FF2394F4009947631BF90031
:1028D80023A60400B2402244924402490145410122
:1028E80082801904C0C4FDB7828083D705008DCFCC
:1028F800011122CC2A84C84106CE15C12EC68545B1
:10290800EFE08FBD2A8722856244B246F240B725A0
:1029180005001D469385E57105616FF0DF86F2407D
:10292800624409450561828009458280994763951B
:10293800F6048947411106C62302F70083471600AB
:1029480083460600B285A207D58F2310F700834778
:1029580036008346260003464700A207D58F130595
:1029680057002311F70091059710FB1FE780A0007F
:10297800B240014541018280D14711456394F60078
:10298800C1474DBF828083D705008DCF011122CC6E
:102998002A84C84106CE15C12EC68945EFE0CFB3BB
:1029A8002A8722856244B246F240B72505002546AB
:1029B8009385A57205616FF00FFDF24062440945E9
:1029C800056182800945828089471145639BF6002D
:1029D80083471600834606000145A207D58F2310BA
:1029E800F7008280011122CC2A84C84106CEAE8627
:1029F800014719C52EC68545EFE00FAEB2462A87B6
:102A080022856244F240B72505002D4693856574FA
:102A180005616FF04FF711456393A60283471600CF
:102A2800834606000145A207D58F2310F700834788
:102A3800360083462600A207D58F2311F70082802F
:102A4800011122CC2A84C84106CEAE8611C52EC6F5
:102A58008545EFE06FA8B2462A8722856244F24096
:102A6800B725050035469385C57405616FF0AFF14C
:102A780093F71600114589EB89476387F60085822D
:102A88002312D70010C301458280011122CC2A8469
:102A9800C84106CE15C12EC68545EFE0EFA32A87AB
:102AA80022856244B246F240B72505003D4693852B
:102AB800257505616FF02FEDF24062440945056107
:102AC800828083D705008DCF011122CC2A84C8418A
:102AD80006CE15C12EC68945EFE00FA02A872285AC
:102AE8006244B246F240B725050045469385857590
:102AF80005616FF04FE9F240624409450561828043
:102B080009458280854763FCD7022304A700A304F4
:102B1800B7008347160083450600A207CD8F231010
:102B2800F7009387E6FF2311F70089476386F600CD
:102B3800090650C30145828023220700E5BF1145DD
:102B48008280014781464D4681456FF0CFE38D472E
:102B5800114563FBD7028347160083450600A20789
:102B6800CD8F2310F7008347360083452600A20740
:102B7800CD8F2311F7009387C6FF2312F7006386D2
:102B8800A600110610C70145828023240700E5BF6F
:102B9800011122CC2A84884506CEAE8611C52EC6E0
:102BA8009545EFE06F93B2462A8722856244F2404A
:102BB800B72505005D469385457705616FF0AFDC65
:102BC800854711456397F6008347060001452300B2
:102BD800F700828001478146654681456FF0AFDA8C
:102BE800011122CC2A84C84106CEAE86014719C5F8
:102BF8002EC68D45EFE04F8EB2462A872285624465
:102C0800F240B72505006D469385457A05616FF05A
:102C18002FCC011122CC2A84C84106CEAE860147AA
:102C280019C52EC68D45EFE02F8BB2462A8722851F
:102C38006244F240B725050075469385457A0561DB
:102C48006FF00FC9011106CE2EC6EF80A06901C929
:102C5800B245F2400355250005616FB09021F2405E
:102C6800494505618280A38C01BA238C01BA23A04F
:102C780001BA23A201BA23A401BA23A601BA23AE3A
:102C880001B823AC01B8938741DA3707B40098C379
:102C98003747A000D8C3370710009306070A94C720
:102CA800B7065000C106D4C7930607054107D8CB1D
:102CB8003707D007410798CF3707840398D337C71A
:102CC8000700130707B8D8D3416794CB93060701C9
:102CD800130717F8D8D7417723AE070094D798DBA6
:102CE8008280011126CAAA84214522CC06CE2E84D0
:102CF80032C636C43AC2EFE0CF851DC9A246124794
:102D08003246930700FD2300F5009947A30095007C
:102D18002301F5002303D500A303E5002312C50012
:102D2800AA8522856244F240D24405616FE0AF8CE7
:102D3800F2406244D2440561828023A0A1BA828015
:102D480023A2A1BA828023A4A1BA828023A6A1BA11
:102D58008280011122CC4AC806CE26CA2A8901449B
:102D6800B30489006368B400F2406244D244424923
:102D7800056182802EC6EFE00F9793170501C18386
:102D8800A183B2452380F4009307140093F7F70F4B
:102D9800850463F9B700CA9709042380A700137450
:102DA800F40F7DBF3E847DBF411122C4138481DDB1
:102DB80003556400C16706C6FD17630BF50003C61B
:102DC800C1C4938501BBEF80E032FD572313F400A3
:102DD800B24022444101828009C925151375F50FB7
:102DE8001335850E134515008280014582802380A6
:102DF8000500F94763E2C708797122D426D24ECE7E
:102E080056CA5AC806D64AD052CC5EC63684B2894B
:102E1800AE8A2A8B814463FF3405B307940003CA42
:102E28000700138914001379F90F63050A04B3071F
:102E38002A0163C1F904B307240183CB07005E8527
:102E4800613F0DC99307FAFF2380FA0063906B0373
:102E5800130519002295B250225492540259F2498E
:102E6800624AD24A424BB24B45618280D29493F473
:102E7800F40F55B70145C5B701458280011122CC31
:102E880026CA4AC84EC6938781DD06CE2E89D0CB86
:102E98008CCBC8C7AA8441469305F00F4A85EFE05A
:102EA8004FA78549138481DD631735030848C14559
:102EB8004D3541469305F00F2685EFE08FA505496E
:102EC8006313250348446244F240D2444249B2495C
:102ED800C1450561BDBD414681454A85EFE06FA307
:102EE800E31935FDE1B7414681452685EFE06FA23C
:102EF800E30A25FDF2406244D2444249B2490561E1
:102F08008280011122CC26CA4EC6AE84AA89130635
:102F18000002138581DD814506CE4AC8EFE04F9552
:102F2800138981DDA38791C4A3013901EFB020760D
:102F3800138481DD854719C1814749452300F40081
:102F4800F2406244D2444249B249056182808147D5
:102F580081CD19C98547631BF50083C7550093E7E1
:102F680007FCA382F50085473E8582808947631761
:102F7800F50083C7550093F7F703E5B70D47854775
:102F8800E314E5FE03C755001377F7031367070437
:102F9800A382E500D1BF81478DC105C103C7550094
:102FA8009306000C85471377070C6308D700930630
:102FB80000048D476303D70089473E85828041110D
:102FC80022C4005D06C626C21DC8AA84085009C5C9
:102FD8009710FB1FE780008F485009C59710FB1F0B
:102FE800E780408E085409C59710FB1FE780808D45
:102FF80022859710FB1FE780E08C23AC0402B240C7
:103008002244924441018280938781DD09E903C704
:1030180027001385870111C7138501B9828013859D
:103028008701828003C5A1DD828003A541DE8280FD
:1030380003A581DE828083A7C1DE884382809387CF
:1030480081DDD44B9842050798C203C53700930722
:10305800F00F6305F50091656FE0EF8D8280011137
:1030680022CC06CE2E8432C6EF80A0369147B245D8
:10307800631EF50083A7C1BA85C303A30700630DC8
:10308800030022856244F2400561028383A741BAA6
:1030980081C703A34700E5B7F240624405450561CF
:1030A8008280011122CC2A840355450006CE26CA07
:1030B8004AC84EC6EF80001335C52A8983440500E7
:1030C8008349C500ED3D4A85EF902009035544002A
:1030D800EF80A02B138981BB83470900A1CB63979D
:1030E800970483C591BB2685EFF0DFB519E123006E
:1030F800090003554400EF80C02D9147631DF5007A
:10310800938781DD8356440003D767006395E60003
:103118007D572393E700F2406244D2444249B249C2
:103128000561828081499304F00F6DB79307F00F12
:10313800E381F4FC834664000356440003452400FD
:103148004E87A685EFF0FFB96DB779715EC6AA8B79
:103158002E8552CC56CA5AC806D622D426D24AD070
:103168004ECEAE8A328B368AEF80C00779CD045DA9
:103178002A89E1CC9C50614599C3130540039C54AE
:1031880081C751054205418163050A007105420561
:103198004181DC5081C7590542054181EFD07FBB91
:1031A8002A8445C561468145EFD09FEC83C941DD3E
:1031B8006394090083490900930700FD2300F40084
:1031C800A947A30074012301F400230364018C5070
:1031D800231254011305840191C908C47146930A46
:1031E80044039700FB1FE780007956858C5491C9EA
:1031F80048C45146930A45019700FB1FE780A07712
:103208005685630C0A0008C87146D285930AC50121
:103218009700FB1FE78020765685CC5099C548C893
:1032280059469700FB1FE7800075A2854E85EFD0B1
:103238009FBC2254B2509254F249624AD24A424B3D
:10324800B24B4A85025945619DBBB25022549254F3
:103258000259F249624AD24A424BB24B45618280D6
:1032680001114EC6AA892E854AC806CE22CC26CA86
:103278002E89EF70307721C583C441DD99E08344FE
:1032880005001945EFD0FFAC2A8415C981451946B8
:10329800EFD01FDE930700FD2300F400B947A30019
:1032A80034012301F40023122401A2856244F24070
:1032B8004249B2492685D24405616FD0DFB3F24056
:1032C8006244D2444249B2490561828039715ECE76
:1032D800AA8B2E8526DA4ED652D456D25AD006DE7E
:1032E80022DC4AD8AE84328BB68A3A8ABE8942C674
:1032F800EF70506F21C92A894145EFD09FA52A84D4
:1033080031C141468145EFD0BFD603C541DD19E142
:1033180003450900930700FD2300F400BD4723017E
:10332800F400B247A300740123129400230464013B
:10333800A304540123054401A30534015CC4A285F8
:10334800EFD07FABF2506254D2544259B259225A4C
:10335800925A025BF24B21618280797126D2AA844B
:1033680039454AD04ECE06D622D42EC6B2893689E1
:10337800EFD03F9E21C1B2459307000D2310F50001
:10338800B1472A842312B5002301F500CE8519051B
:1033980019469700FB1FE780005E23062401A285DB
:1033A8002254B2500259F24913F5F40F9254456170
:1033B8006FD07FA4B250225492540259F249456109
:1033C8008280411126C2938481DD03C7340006C67A
:1033D80022C44AC09307F00F630AF7042A893945C3
:1033E800EFD03F972A8439C1930700FD2300F500E9
:1033F800A300250123010500938584010D051946C5
:103408009700FB1FE780205783D78400A28503C558
:1034180034002315F40083C714002306F400224463
:10342800B2409244024941016FD0FF9CB24022440D
:103438009244024941018280011156C2AA8A31454B
:1034480026CA4AC84EC652C406CE22CCAE84328A98
:10345800B6893A89EFD0FF8F39C52A842685EF705F
:1034680070581DCD03450500930700FD2300F400A7
:103478009D47A30054012301F40023129400231351
:1034880044012314340123152401A2856244F24027
:10349800D2444249B249224A924A05616FD0BF9547
:1034A80003C5B1DDD1B7F2406244D2444249B249C2
:1034B800224A924A05618280397162CC2A8C594528
:1034C80026DA4AD84ED652D456D25AD05ECE06DE26
:1034D80022DCAE8432C636C4BA8B3E8BC28A468A98
:1034E8008359010403494104EFD0BF8635C53246EC
:1034F800930700FDA2462300F5009547A301C500E8
:10350800A30085012301F5002A8419461105A9C2E3
:10351800B6859700FB1FE780004623066401230A4F
:103528002401231574012317540123184401231976
:103538003401A2856254F2504259B259225A925A21
:10354800025BF24B624C2685D25421616FD0BF8A50
:103558008145EFD0FFB1D1B7F2506254D2544259ED
:10356800B259225A925A025BF24B624C2161828014
:10357800411122C4138481DD8347240006C626C274
:103588009DC7AA851946138501B99700FB1FE780D7
:10359800803E03452400938501B9EFF05F9B2244E8
:1035A800B240138501B9924441016FB0000FB24097
:1035B80022449244014541018280411126C29387E9
:1035C80081DD06C622C44AC003C737009307F00F3F
:1035D800938481DD6302F7042A892945EFD06FF7C8
:1035E8002A841DC9930700FD2300F500A147A30005
:1035F80025012301F50083C72400938501B9A301A0
:10360800F500194611059700FB1FE780C03603C572
:103618003400A285EFD02FFE03C724008D47631F17
:10362800F70083A781BA99CB03A387006308030037
:103638002244B2409244024941010283B2402244EA
:103648009244024941018280797122D406D626D259
:103658004AD04ECE52CC56CA09445DC92A89035570
:103668000500AE895144EF70F037AA8455C193879D
:10367800C1C483C737008546BA8AFD1793F7F70F89
:10368800494463F7F6080347C500A1476314F700E8
:10369800639009089C5C4544A5EF91659385457145
:1036A8001305C0029700FB1FE780C01888DC2A8A30
:1036B8004D4439CD1306C0028145EFD07F9B835717
:1036C800090093064A0036852311FA0071469305CE
:1036D800490036C69700FB1FE780E0298947230089
:1036E800FA0003C5C400B2460356090083C5C1C425
:1036F800611513351500EFA0C0412A8463860900BF
:10370800CE852685EF80505001C42685EFF03F8B8B
:103718002285B250225492540259F249624AD24A3E
:103728004561828083C7F1C40547FD1793F7F70FFA
:103738006378F708894751C6011122CC26CA4AC8BE
:103748004EC652C406CEAA89368AB2842E89EF7034
:1037580070292A84D14729C9485509C59700FB1FF4
:10376800E7804016F1452685EFD0FF9248D4CD4733
:1037780005CD8346C40021478147639FE600630D5A
:103788000A000347A5010356050193062501AA85EA
:103798004E85EF80C03FAA8703474400630F0900A6
:1037A800136767002302E400F2406244D2444249AE
:1037B800B249224A3E850561828013674700DDB71A
:1037C800C9473E858280E14763EAA7009317150041
:1037D800138541DA3E9503550500828041657D15C4
:1037E8008280011122CC2A842E8526CA06CEAE8478
:1037F800EF70501F0DCDB7470F009387F72309458A
:1038080063E2870281450A854146EFD07F86A68517
:10381800231081000A85418023018100A301010052
:10382800EFA0A011F2406244D2440561828049456C
:10383800D5BFA386A1C482806FA0C026797152CC5F
:103848002A8A328522D426D24AD04ECE56CA5AC89F
:103858005EC606D662C4AE8BB28A368BBA843E89FF
:10386800C2894684EF70101815C92A8C63140A029D
:1038780013774B008347450015CF93E727012302B1
:10388800FC008DEC631C0902639A090205E8ED9BB4
:103898002302FC00832B8C03639F0B06B250225437
:1038A80092540259F249624AD24A424BB24B224CD4
:1038B80045618280F59B93E70701D1B793E74700FD
:1038C8002302FC0001CC1C484146A2852324FC02AB
:1038D80013058C019700FB1FE780E00963910B0239
:1038E800D5D80325CC0209C59700FB1FE78080FDCA
:1038F800F1452685EFD02FFA2326AC0261BFE30BF2
:1039080009F80325CC0209C59700FB1FE78080FB57
:10391800F1454A85C5B79DC483A70B0299EB91650C
:103928009385357171459700FB1FE780A0F023A0B0
:10393800AB0203A50B0219C57146A6859700FB1FAC
:10394800E78060036388090283A74B0299EB9165BE
:103958009385257159459700FB1FE780A0ED23A2A9
:10396800AB0203A54B0219C55946CE859700FB1F2C
:10397800E78060001DC483A78B0299EB916593854E
:10398800157151459700FB1FE780C0EA23A4AB02DD
:1039980003A58B0219C55146A2859700FB1FE78036
:1039A80080FD2254B2509254F249B24B224CCA863E
:1039B8005A860259424BD6855285D24A624A456197
:1039C8006FF0AFF8011126CA52C406CE22CC4AC8FD
:1039D8004EC62A8AAE84EF70F00035C1AA893945EF
:1039E800EFD02FB72A8421CD03C941DD6314090024
:1039F80003C909009307000D2310F400AD47230104
:103A0800F400938569001305340019469700FB1FDD
:103A1800E78060F693F71400858085882306F40014
:103A2800A306940023154401A2856244F240D244BF
:103A3800B249224A4A85424905616FD0CFBBF2405C
:103A48006244D2444249B249224A05618280411106
:103A580022C4138481B9084006C619C59700FB1F04
:103A6800E78040E623200400B240224441018280DE
:103A7800011106CE22CC26CA4AC82EC6EF7080761F
:103A880029CDB24503C941DD0CD5AA8463140900C8
:103A9800034905004145EFD0CFAB2A841DCD9307DC
:103AA800000D2310F500A5472301F50083C7540036
:103AB800938564001105A30FF5FE19469700FB1FB7
:103AC800E78060EB9C54A285F2405CC46244D24417
:103AD8004A85424905616FD00FB2F2406244D24430
:103AE800424905618280797122D406D62A842EC67D
:103AF800EF70406F0DCD8346C5001147AA87494531
:103B08006393E6029C5FB24599C383C567010808C1
:103B1800EF807018B7D60500938686D110088945BE
:103B28002285EF80600BB250225445618280514556
:103B3800DDBF83C7F1C40547FD1793F7F70F637A15
:103B4800F704894721CA411122C426C24AC006C6C1
:103B5800B2842E89EF7000692A84D14705C56308AD
:103B680009008347450093E727002302F5004146F3
:103B7800A685130584019700FB1FE780C0DF9C48DA
:103B88001CD48147B2402244924402493E854101F7
:103B98008280C9473E858280797122D406D62A84DC
:103BA8002EC6EF70206401CDB2452285230EB100E8
:103BB8006C08EF80F001B250225445618280514573
:103BC800DDBF6F700077C1671387E7FF6393E50276
:103BD80083A741BA91EB494582804945B2402244C6
:103BE800924402494101828003A30700E30503FED2
:103BF8000283411122C426C24AC006C6FD172A897B
:103C08002E84B2846394F50283A741BA91CB9C4376
:103C180081CB829711E5238C21BBA38C91BA7DBF00
:103C2800A6854A85EFF00F8255F9F5B72E85EF7016
:103C3800605B45D5834705000D45E39127FB228549
:103C48002244B2400249A685924441016FA07022E5
:103C580061476360A7044111416722C406C626C2B2
:103C68007D172A8409456381E502C547AE8463153B
:103C7800F4002E85EFA0F02993171400138441DA7D
:103C8800A297239097000145B240224492444101F3
:103C9800828009458280011106CE2AC6EFE0BFFC6A
:103CA800EF10A01BD12DEF90B13B938781DD130757
:103CB80000F02391E7002382070032451387C1C42F
:103CC800FD56A300D700F2402386A1C4954505619F
:103CD8006F5030721D7193970501A6CA86CEA2CC8B
:103CE800CAC8CEC6D2C4D6C2DAC05EDE62DC66DA24
:103CF8006AD86ED6C187AE8463D0074603C5C1C4EF
:103D0800EFD00F892A8D138481DD63130D0221659D
:103D1800258DF6406644D6444649B649264A964A11
:103D2800064BF25B625CD25C425DB25D25618280CB
:103D380083470D001307200A639CE70003493400FA
:103D480003552D00C1656A86FD15EFF04FB105A238
:103D58001387C1C403491700130710096396E714B2
:103D680083471D001547639EE7006A85EFF06FB330
:103D78006A85EFC05FFB03C5C1C4EFD06F812A8D90
:103D880069B739476396E71403554D008567A5075A
:103D98006314F50483258D0003CA0500631B0A001C
:103DA800850581C91946138501DF9700FB1FE78048
:103DB80080BC0347040085476318F70E63080A00B0
:103DC800230004005285EFF0CFDF5DB78947230059
:103DD800F400EFA0500C69BF096793072700631C24
:103DE800F504032A8D0063010A0C83470A0089EF52
:103DF80083472A0003471A00A207D98F2314F40027
:103E080083473A00A300F400034704008947631D71
:103E1800F70883470A0091C72300040003450A00F6
:103E28005DB783451400035584008D472300F400D3
:103E3800EF50F05EE5B7930757006319F500832745
:103E48008D0003C50700EFF04FF71DB7F977E917A5
:103E5800AA97C207C183914663EEF60083A781BA89
:103E6800E38807F09C43E38507F06A858297E311AE
:103E780005F01DA82D07631EE50083A701BAE38995
:103E880007EE9C43E38607EE0965EA852D058297D0
:103E9800F9BF89671387C7006311E50283278D007F
:103EA80083C70700E38607EC9307F00FE302F9ECFA
:103EB800EA854A85EFC03FF47DBDB907E316F5FEF4
:103EC80083A741BAE38607EADC43EA85E9F34DB5FF
:103ED8003D476397E70403554D0089671387D7006B
:103EE800E300E5FE13879701E30CE5FCCD07E31D2E
:103EF800F5FA03576400C167FD17631DF70083A730
:103F080041BAE38707E6DC43E38407E60965EA8507
:103F18004D05B5BF83A7C1BAE38C07E49C43EDB751
:103F28001307E003E392E7F883472D0005476393FF
:103F3800E70E83476D00938D81B9F1E383A70D00E8
:103F4800C5CF03CA0700214903457D00130C8D0026
:103F5800E285EFF04F8483474D01A303AD008358FA
:103F68000D010358ED0003574D002A8603453D0017
:103F78003EC283572D01E286D2853EC0CA87EFF044
:103F8800AFD383473D0095E7DD4783580D010358BC
:103F9800ED0083467D0083554D003EC283572D01B9
:103FA8003EC06287CA8705465285EF700058A30154
:103FB800AD0083A70D0081C71145EFF05FA9138AF3
:103FC80081BB03450A00E30505DA83C591BBEFE031
:103FD8007FC7E30F05D883463D0093071003638A24
:103FE800F60003564D0083450A004A873685EFE000
:103FF8005FCF238C01BAADBB034A3400A9B783A7AE
:1040080081BA034A34001149A1D3DC4395DF014545
:1040180082971DBF2947639DE70883476D00938DED
:1040280081B9A5EF83A70D00B5C703CA07002149C9
:1040380003457D00130C8D0093772500137615003A
:1040480089E7E285EFE03FF52A8683470D02A3035F
:10405800CD008358CD010358AD0103574D000345EA
:104068003D003EC28357ED01E286D2853EC0CA8735
:10407800EFF08FC483473D008DFFDD478358CD01A6
:104088000358AD0183467D0083554D003EC28357DA
:10409800ED0139B7034A340059BF83A781BA034AEF
:1040A80034001149D1D7DC43C1D70145829749B7BC
:1040B8000947639CE70083A701BAE38B07CADC437F
:1040C800E38807CA6A85829765B12D476398E70038
:1040D80083A701BAE38E07C89C47DDB70D476397EE
:1040E800E7006A868D4503554D0085B11947E39D64
:1040F800E7DA9305610113051031EF9031012C08BF
:1041080013052031EF90910003566D00835781010C
:1041180003554D0063E8C70083568D0003576101BE
:1041280063F7E60093050002EFA0A05D91B1637408
:10413800E6002313ED0063F4D7002314FD000357B2
:10414800CD008356AD0003568D0083556D000148A0
:104158008147EFA0C05A29B993F7150099CB83A7D7
:1041680001BA89C7DC4399C30145829713C5140076
:104178004DB693F7250099CB83A781BA89C7DC434D
:1041880099C30545829713C5240061B693F7450086
:104198000145E38007B883A7C1B9138481DD99CBB2
:1041A80085472302F40083A781BA89C7DC4399C3F2
:1041B8000545829748442C08EF90A0612808EFF045
:1041C8002FBB83D761DC91CB130600643386C7020B
:1041D80003C5C1C49145EFD0CF8613C5440015BEB1
:1041E800411122C42A84554506C6EFF0CFDDB33508
:1041F800A00022852244B24041016FA0804B797112
:1042080022D406D68D472E84631FF50003D7A50058
:1042180083D6850003D665000345340083D5450061
:10422800EFF08FA109A889671387D700631FE502FC
:1042380003C5250019E58547B25022543E854561DE
:10424800828083A681B9E5DA03C6360083C50600F5
:10425800814802C202C00148814701479106EFF038
:10426800AFA50545EFF0AFFEF9B71387E700E30404
:10427800E5FC13873701631AE50003C5250045DD12
:10428800014781460146814561BFE507E305F5FA27
:1042980041677D178147E311E5FA03C75500C94710
:1042A800E31BF7F883D6E50003D6C5000355840061
:1042B80083D5A500EFA0604651C15D45EFF0AFD0B2
:1042C8003335A000231CA100834544000355240076
:1042D8003008EF60906383578101B1FF6C081305C4
:1042E8001031EF90A1629305E10113052031EF90A1
:1042F800E1618357C101035784006374F7002314F5
:10430800F4008357E1010357A40063F4E700231581
:10431800F400835584008357A40063F4B700231581
:10432800B4000357E4008356C4000356A4000355A1
:10433800240001488147EFA0803AF5BD8547231C3A
:10434800F10059B7C1671387E7FF639CE50083A7AE
:1043580081B98DC383C707000D47639BA7006FA072
:104368004037FD1749476395F50083A781B9E5FBF9
:104378003A8582804947EDBF238201BC23A601BC50
:1043880023A401BC37570500938781DF1307A78152
:1043980098C33757050013072785D8C33757050033
:1043A8001307679698C7374705009387C1BB13075C
:1043B800C73498C33747050013076720D8C38280DE
:1043C800397122DC06DE26DA4AD84ED652D456D2C5
:1043D8005AD05ECE62CC0347050085472A84630B1A
:1043E800F70403468500930695009305F1000545FB
:1043F800EFE0FF9F814719C183470500834604000A
:1044080011476381E60403A781BC8D460347170063
:10441800630AD70285CB1DC70DE10145F2506254EE
:10442800D2544259B259225A925A025BF24B624C08
:104438002161828081470145D1B78546631ED7082F
:104448008D8BE1DF03451400130A2400D285EFE0C9
:104458009FB4A300A40083A7C1BC2A8B1389C1BC45
:104468008149C1C39304F00F83C741BC138C41BC7D
:1044780063FBF90203250900939B49005E95834776
:1044880005006382970683471500639E67051946F2
:10449800D2850905EFC0FFC339C583240900034746
:1044A8000400DE94B9E4834604009147E387F6F6F6
:1044B80083270900BDD303460C0001479305F00F7D
:1044C800E30DE6F4BE84C10703C507FF6307B50C17
:1044D80005071377F70FEDB78946E310D7F4858BF7
:1044E8008DB7054525BF850993F9F90FB5BF88C470
:1044F800E5A09147631AF706C84405C583478400B9
:10450800034605006304F606034704009147631B4E
:10451800F706C84419C597F0FA1FE780A03A23A602
:1045280004000345840091659385E571050597F0BE
:10453800FA1FE780203005C5034704009147631C34
:10454800F704C8C483478400930594000505A30FA6
:10455800F5FE0346840097F0FA1FE780C041034543
:1045680084003335A0005DBD884441BF93059400A5
:104578000505EFC01FB68547E318F5F85545EFF078
:104588008FA4BDA8884451DD97F0FA1FE7808033D7
:1045980023A4040079B788C475B72380D40083475F
:1045A8001400D28513852400A380F400194697F0DF
:1045B800FA1FE780403C0345840091659385F571B7
:1045C800050597F0FA1FE780E02605C503470400B4
:1045D8009147E31EF7F0C8C483478400930594000D
:1045E8000505A30FF5FE0346840097F0FA1FE78040
:1045F800803883478400E39607EE034504007D1561
:104608001335150021BD011122CC83A7C1BC06CEEC
:1046180026CA4AC84EC652C48DC31384C1BC2E8A4A
:10462800AA840149084063129902630C0A0497F0AE
:10463800FA1FE780202923200400F2406244D24474
:104648004249B249224A0561828093194900B30759
:104658003501884709C997F0FA1FE780A0261C4052
:10466800CE9723A407001C40CE97C84709C997F0E6
:10467800FA1FE78020251C40BE9923A609000509DA
:1046880055B745DD139644008145EFC07F9E144021
:1046980081477D5613F7F70FE37197FA1397470091
:1046A80036972300C7008507F5B779714AD083A7E5
:1046B80081BC06D622D426D24ECE52CC56CA5AC86F
:1046C8005EC6D1CFAA89138981BC938A41BC0144B3
:1046D80011ED83A6C1BC99CA03C60A002A84814782
:1046E8009305F00F13F7F70F6366C7081315340027
:1046F8002105EFC00FE6AA8401E92145EFC06FE567
:10470800AA8431C10144CD49930700FD2380F400F8
:104718008547A38034012381F400A381840055C414
:104728009389840023A23401014A930BF00F83C7B5
:104738000A006373FA0039E883270900A68503C5D0
:104748000700EFC04FEB03C50A0081456D3D032507
:10475800090097F0FA1FE780E01623200900B250FD
:10476800225492540259F249624AD24A424BB24BFD
:104778004561828013974700369703470700630512
:10478800B70005041374F40F8507A9BF83A7C1BC3C
:1047980093154A00BE9583C7050063847703238079
:1047A800F90083C71500138529007D14A380F9003B
:1047B800194689051374F40F97F0FA1FE780A01BB8
:1047C800A109050A137AFA0F9DB723A20400ADB711
:1047D800411122C406C62A8405E10945EFE0BFFE5F
:1047E8002A8611C503C5C1C48545EFC09FA50545E7
:1047F800EFF01F9F2A8409C903C5C1C48545EFC0CE
:10480800FFB92285EFF07FEAB24022440545410115
:10481800828089671387B7006319E50083A781BC85
:1048280095C39C4503C5070065B71387C700814733
:10483800631BE5009C4503C50700854709C583A799
:1048480081BCFDF381473E858280797106D622D4EA
:1048580026D24AD04ECE52CC56CA5AC85EC662C478
:1048680061CD83473500AA8995C3404105C05945A4
:10487800EFE07FF5931A850193DA8A410149130B1A
:10488800000DB54B83C73900636EF900B25022544E
:1048980092540259F249624AD24A424BB24B224CD4
:1048A800456182808307840263CF570783A781BC51
:1048B800138C81BCADCB2285EFF09FB02DC503458D
:1048C80084005105EFC0EFC8AA8431CD23106501DB
:1048D8002301750183470400194693052400A301A9
:1048E800F5008307840215052303F50083471400A8
:1048F800A30FF5FE97F0FA1FE780E0070346840050
:104908002386C4001DC61385440188C893059400F6
:1049180097F0FA1FE780200683270C00A68503C5B9
:104928000700EFC04FCD0509130494021379F90F5E
:1049380091BF23A80400CDB783A781BCA1DBEFF00A
:10494800DFD62254B25092540259F249624AD24AEE
:10495800424BB24B224C014545616FF07F8879711B
:1049680006D622D426D24AD04ECE52CC56CA5AC8DF
:104978005EC662C479C183473500AA8995C344419C
:1049880085C05945EFE03FE4931A850193DA8A41DF
:104998000149930B00FD414C83C73900636EF90050
:1049A800B250225492540259F249624AD24A424BB6
:1049B800B24B224C456182808387F40063CA570753
:1049C800138A81BC83270A00A5C75145EFC06FB879
:1049D8002A8439CD23007501A30005002301850130
:1049E80083C70400194693852400A301F500838733
:1049F800F4001505A306F50083C71400A30FF5FE00
:104A080097F0FA1FE78020F783C784009385940006
:104A18001305C400A305F400194697F0FA1FE780B0
:104A280080F583270A00A28503C50700EFC0AFBC45
:104A38000509C1041379F90F85B783A781BCADD3E4
:104A4800EFF0BFC62254B25092540259F249624A5A
:104A5800D24A424BB24B224C014545616FF04FF8A8
:104A680083A781BC95C703C707008D476313A702B7
:104A780003C5C1C44111854506C6EFC03F92130561
:104A88000003EFF09FC2B240014541016FF04FF5BE
:104A9800C9473E858280797126D2938481BC9C4027
:104AA80006D622D4BDEF03C7F1C4C947298B25C751
:104AB80091652A849385D571114597F0FA1FE7808F
:104AC80060D788C0CD4721C91146A28597F0FA1F43
:104AD800E78060EA1545EFE01FCFAA841945EFE0AB
:104AE8009FCE2AC69305F1011305F041EF70C17FEF
:104AF800938781DD83C627000347F1013246B33629
:104B0800D00011C389060347340003452400A68555
:104B1800EF90F039AA87B250225492543E854561ED
:104B28008280C547CDBF5D71A6C2A2C486C6CAC071
:104B38004EDE52DC56DA5AD89384C1C483C7340097
:104B48004944A18B638A070E83A781BC41446395BE
:104B5800070E2A89EFF0EF8683C744005544637D2A
:104B6800F50C83A781B945446398070C9165938533
:104B7800C571294597F0FA1FE780C0CB23ACA1B8CF
:104B88004D445DC92946CA8597F0FA1FE780A0DE23
:104B980083A781B983C71700DDCB2D45EFE0BFC2DE
:104BA8002A843145EFE03FC22A899305F1021305B3
:104BB800F041EF706173938781DD83C72700034756
:104BC800F102B337F00011C3890741453ECEEFE04B
:104BD8009FBF2A8B3D45EFE01FBFAA8A3545EFE00E
:104BE8009FBE2A8A3945EFE01FBEAA892145EFE01A
:104BF8009FBD2ACC1D45EFE01FBD03A781B92ACA76
:104C08000345370093054700EFE06FB403A781B968
:104C1800E248524803462700F247AA865AC6228528
:104C280056C452C24EC01107CA85EF90D0282A84B4
:104C380001C50D45EFE0BFE12285B6402644964404
:104C48000649F259625AD25A425B6161828025450F
:104C5800EFE07FB72A842945B1B783C7F1C401457E
:104C6800A18B99C31385C1BB6FE08F8D411122C4FD
:104C7800138441BC26C2AA8403450400854506C6A0
:104C8800EFF07F9883C7F1C4A98BB5C723009400C0
:104C9800138581DFEFE06F8A9384C1BC9C4099C77C
:104CA8004D45B240224492444101828003450400AC
:104CB80019E10145FDB791659385B571120597F026
:104CC800FA1FE78020B788C061DD034604008145EC
:104CD8001206EFC0EFB98346040090408147FD55A6
:104CE80013F7F70FE377D7FC1397470032972300A2
:104CF800B7008507F5B7014523000400EFE0EF830F
:104D08004DBF411122C403A5C1B906C619C597F004
:104D1800FA1FE78020BB23AE01B8B240224441010C
:104D28008280011122CC06CE26CA8D472E846313B9
:104D3800F50603C73500E94703D54500938481DDAF
:104D48006316F70083D764006382A706EF60804983
:104D580009C5835764002317F5000357A400835639
:104D68008400035664008355440003453400EFE093
:104D7800AFEC0357440083D764006309F700854705
:104D8800F2406244D2443E8505618280FD572393F8
:104D9800F400F5B78967CD07631DF50083C72500C3
:104DA80031476385E7004547E39BE7FCEFD0DFFF2A
:104DB800F9B741677D178147E314E5FC83C65500C1
:104DC8004947E39FE6FA83C54500035524003000B0
:104DD80023140100EF60402E5DB7797122D483A7B8
:104DE800C1B906D626D24AD00545B5C30D45EFE070
:104DF8009F9DAA841145EFE01F9D2A899305F10123
:104E08001305F041EF70414E938781DD83C627007B
:104E18000347F101B336D00011C3890683A7C1B98E
:104E280036C603C5370093854700EFE04F9203A6C7
:104E3800C1B9B2462A878348B6000348A60093073B
:104E4800460003462600CA852685EF905005B250D5
:104E5800225492540259456182807D57238EE1B0D5
:104E6800239801BC23AC01BC23AE01BC23A001BE26
:104E780037570500938741E0130787EF98C33757E3
:104E880005001307671DD8C337570500130727DE2A
:104E980098C7B75705009387A7D223AAF1BC828089
:104EA800411126C283A7C1B906C622C48DCF2A8460
:104EB8000D45EFB01FEAAA8505C1930700FD230041
:104EC800F5008D47A30085002301F50083A7C1B92C
:104ED80003C50700EFB03FF219C42244B240924420
:104EE80041016FF01FE2B2402244924441018280A6
:104EF800797126D283544500896706D622D44AD0D0
:104F08004ECE52CC56CA13876700639EE40283A72D
:104F1800C1B9014481CF18450345070015E105478C
:104F2800A380E7000545EF90407805442285B250FC
:104F3800225492540259F249624AD24A4561828007
:104F4800EFF01FF6DDB713879700636797041384A4
:104F5800C1B1034704009307F00FE308F7FC1C45B1
:104F6800114503C90700EFB0DFDEAA855DDD9307B1
:104F780000FD2300F50089472301F500F977E117C3
:104F8800BE9493B41400A3002501A3019500034522
:104F98000400EFB05FE651BFA9070144E398F4F8B5
:104FA80083A7C1B9CE8AD9D3184503C4170085474A
:104FB800034A0700138981DD630CF4028347490023
:104FC800ADF70D45EFB0FFD8AA8505C1930700FDE1
:104FD8002300F5009147A30045012301F50083A7AD
:104FE800C1B903C50700EFB01FE1EFF09FD135BF8E
:104FF80083A781BD91EF0145EFE0EFFC2A8611C63A
:1050080003C5C1C48945EFC0CFA383A7C1B9A9A06F
:1050180003C60700938617009305F1000545EFD0F6
:105028001FDD71D983470500858BF1D70545EFE072
:105038008FF99307B003AA8463F9A70203C5C1C413
:105048005D66130606708945EFC06FB2938444FC11
:10505800239891BC83A7C1B90947A380E700834778
:10506800490089CB23020900D1B513060064330631
:10507800C50271B75285EFF0BFE24DBD79714ECED2
:1050880083A7C1B922D406D626D24AD052CC4544E9
:1050980089EB9387C1C483C7370013F7570019EB0F
:1050A80049442285B250225492540259F249624A24
:1050B8004561828003A781BD414465D70347070046
:1050C8006DD3858B2E892A8AC9C78347090005476E
:1050D800F91793F7F70FE365F7FC916593857571F9
:1050E800314597E0FA1FE780E07423AEA1B84D443C
:1050F8004DD923004501A30005002946CA850905A5
:1051080097F0FA1FE7802087930571001305F04197
:10511800EF70811D83477100A9E703C7A1DD8D47A3
:105128006311F704EFD07FF02C00EF80806A28002D
:10513800EFE00FC44545EFE00FE901443DD1130608
:1051480000643306C50203C5C1C49145EFC06F8F23
:1051580089BFEFE01FA72A84EF606020E377A4F6F9
:10516800ADBFEFF09FC72A840DDDEFF09FB915BFE3
:10517800411126C283A7C1B906C622C44AC0A1C329
:1051880083C707000D44639DA70203C5C1C48945B1
:10519800EFC0CFA003C5C1C49145239801BCEFC09F
:1051A800EF9FA38E01DC83A7C1B90145A3808700C7
:1051B8002244B2409244024941016F90004F494451
:1051C8002285B24022449244024941018280411121
:1051D80006C622C426C285476315F506138401BD99
:1051E80083570400A1C703C7C1DD29E31307B00330
:1051F8006369F70203C5C1C48945EFC02F9A0356F6
:1052080004009307006403C5C1C43306F602894548
:10521800EFC02F8323100400B2402244924441017E
:105228008280938747FC2310F400FDB783A7C1B998
:10523800E5D72244B240924403C5070041016FF00C
:105248003FF383A7C1B9E9DB9387C1C483C737009C
:10525800918BF9D303C5C1C48945EFC02F9422446B
:10526800B2409244239801BC41016FF09FA983C7C3
:10527800F1C4958BD9CFB9CD83A781BDD9CBFD47D3
:1052880063EBC70811C2C1CA411122C44AC006C68D
:1052980026C2238EA1B036893284A1C1938481BDF0
:1052A80088407D4681450505EFB09FDC8840CA856A
:1052B8002286050597E0FA1FE780E06B8C4022857F
:1052C800238085002244B240924402498505410169
:1052D8006F90203D83A701BE55B7938401BE8840D7
:1052E8007D4681450505EFB0BFD88840CA8522862E
:1052F800050597E0FA1FE78000688C402285238027
:1053080085002244B24092440249850541016F90CC
:1053180080394945828009458280797106D622D430
:1053280026D24AD04ECE52CC8D4763FCA700094402
:105338002285B250225492540259F249624A456178
:10534800828003C781DD4144E314F7FE938781DD42
:1053580083C927009307F5FF93F7F70F85462E8437
:105368002A89938481DD63E4F60695E1994528004E
:10537800EFD03F9E03C5C1C4914523812401EFC0EE
:10538800EF81A382040029CC2381340155B7194643
:1053980081452800EFB0DFCD19462C002285EFB0FB
:1053A8005FD351F519469305F00F2800EFB05FCC95
:1053B80019462C002285EFB0DFD135F9A2851946B0
:1053C800280097E0FA1FE780005B014465B70144B5
:1053D800E312E5FAC8442C00EF80A03F2A8459BFA5
:1053E800631409000144A9B72800EFE06F982A84E4
:1053F80041FD8D47E318F9FE4545EFE0CFBC137535
:10540800F50FA382A40079DD03C5C1C45D66130648
:1054180006709145EFB0BFF521BF83C7F1C4918BEA
:1054280089CF4111138541BD06C6EFD03F92B240E6
:105438007D57239FE1DC4101828001456FD01F9198
:10544800411122C403A581BD06C626C24AC01384E1
:1054580081BD19C597E0FA1FE780C04623200400E4
:1054680003A501BE938401BE19C597E0FA1FE78022
:10547800604523A004001389C1C483473900958B74
:10548800ADCB138541E0EFD01F8C83473900958B56
:1054980081EB4D45B2402244924402494101828049
:1054A8001169930569711305000297E0FA1FE780F7
:1054B800603808C079DD130600028145EFB05FBB94
:1054C800930559711305000297E0FA1FE7808036AB
:1054D80088C001C9130600028145EFB07FB90145B4
:1054E80055BF084097E0FA1FE780C03D232004001D
:1054F8004DB70145EFD03F85DDB703C7050093766B
:1055080025009377D70F99C2936727001318850151
:105518001358884113F7F7076354080013E707087F
:10552800937685009377770F99C2936787001377EF
:10553800050293F6F70D19C393E607022380D500F9
:10554800634508009377A50281CB8347060093E75C
:10555800C7002300F60082807DFD83470600CD9BAF
:10556800CDBF2D456317071403C805000947631EFF
:10557800E812C84103471500034505002207498F73
:1055880042070D654187930825A06309170B011190
:1055980022CC26CA4AC84EC606CEBE89B6843284F4
:1055A8002E8963CEE800930705A0630DF702130563
:1055B80015A0630EA704239004000545A5A0930732
:1055C80045A06307F7086346F706130565AAE314C1
:1055D800A7FE85472390F600DC4583C70700230014
:1055E800F60081A0C845EFB0DFA9420541814E868B
:1055F800637335012A862390C400420641828325BD
:10560800C900228597E0FA1FE780E03619A8DC4533
:1056180083D70700239006012300F600A183A30087
:10562800F6000145F2406244D2444249B24905615C
:10563800828099472390F6001946D1B78547239071
:10564800F600DC45014583C707002300F600828089
:10565800DC45A9CB21472390E60003D707002300A8
:10566800E60003D707002183A300E60003D727003D
:105678002301E60003D727002183A301E60003D70F
:1056880047002302E60003D747002183A302E60070
:1056980003D767002303E60083D76700A183A3032A
:1056A800F60041B723900600ADBF239006000545DC
:1056B8008280828083C8050089476391F814DC41A1
:1056C800797122D406D626D24AD04ECE52CC03C8FF
:1056D800170083C707002E8422083368F8004208A1
:1056E8008D6713580841138327A0630A680E2A8A16
:1056F8003A89B684B285634C0301138707A0630A0D
:10570800E802938717A06303F808854711A8138751
:1057180037A06303E80A138767AA8D47E317E8FEF3
:10572800B250225492540259F249624A3E85456168
:105738008280484432C6EFB0DF94420541819D47DC
:10574800E36025FFB3099900D547B24563D4370113
:10575800B547F9B748442686C2094A9597E0FA1F23
:10576800E7806021484493D90901594633063641F8
:1057780081454E95EFB0DF8F83A781BE99E38147BE
:1057880045B79C438145E5DF52852DA0AD47E31918
:1057980009F8E39F16FB8347160083460600584422
:1057A800A207D58F2310F70083A781BEE9DB9C43AE
:1057B8008545F1D78297E1B7AD47E31309F69947D5
:1057C800E398F6F84844194697E0FA1FE780A01ACC
:1057D80083A781BECDD79C43DDD38D4575B7AD4733
:1057E80021F38547E396F6F603470600930700087A
:1057F800E3E8E6F2DC452380E70051B785473E85BC
:10580800828023A401BE89472380F1B2138F01B29D
:105818008147938E01E15947B386FE002380060035
:105828008507E39BE7FEB707A000938541B29387FE
:1058380007059CC1B707E803DCC1238301BE37F61F
:105848000600938781A113064686D0C337F6060063
:105858000947138ED1B1130686832300EE00D0C703
:1058680023AEE70123AEC70337F6060037FF06006D
:1058780037FE0600854613068684938811B2138383
:1058880041BE1388F1B11385E1B1130F0F85130ED3
:105898000E842380E8002380E7002388E700238024
:1058A800E7022388E7022380E7042300E800238433
:1058B800D70023950700D0CB238CD700239D070062
:1058C80023A2E7032384D7022395070223A6D7033D
:1058D800D0DB238CD702239D070223A2C70523848C
:1058E800D70423950704231003002300D50023A61B
:1058F80067042388E70423AE17052380E706238877
:10590800E7062380E708B7F8060037F7060013070D
:1059180047849388088623A2E708F0CB238CD70412
:10592800239D070423A217072384D7062395070678
:10593800ECD7F0DB238CD706239D070623AE070799
:105948002384D7082395070823A6A70837570500F7
:10595800938781AA1307A75698C3375705001307DB
:10596800C76BD8C323A407008280A54763E1A70CAF
:10597800B7E70600938747390A053E951C41411150
:1059880022C426C206C64AC0B2842E848287D5475E
:10599800614563E1B70259468145138501E1EFB0DE
:1059A8002FED2286A685138501E197E0FA1FE7808F
:1059B80080FC0145B2402244924402494101828060
:1059C80089476145E398F5FE035706002392E1BE37
:1059D800CDB7A1476145E39FF5FC2146A685138510
:1059E80041B2EF80310EF1B785476145E394F5FC8C
:1059F800938581A1D04D9385850203C50400EFF0FE
:105A0800DFAF45BF85476145E396F5FA938581A1E8
:105A1800D05D93858504D5B785476145E39CF5F846
:105A280003470600238FE1B069B7094561B7094507
:105A380082800547630AE5024111AA8706C62E85BA
:105A480099CB11476388E7022547638BE70209452D
:105A5800B240410182805546938501E197E0FA1FE3
:105A6800E78060F10145EDB783D741BE014523903A
:105A7800F50082802146938541B2EF80B104DDB7FD
:105A880083C7E1B12380F500F1BF938761BE03C7E7
:105A9800070011EF05472380E700058909C99386A8
:105AA80081AA4146A545138581A16F30006401454F
:105AB800828001111388F5FF06CE22CC26CA4AC877
:105AC8004EC652C41378F80FAD4563ED050BB7E524
